:020000040800F2
:10000000780F00206D0200081DAA00085196000814
:1000100011A10008110400083DD9000800000000EB
:1000200000000000000000000000000055B80008BB
:10003000550E000800000000FDAD000859B800088A
:1000400089020008890200088902000800000000F7
:1000500089020008890200088902000800000000E7
:1000600089020008890200080000000089020008D7
:100070008902000889020008890200088902000834
:100080008902000889020008890200088902000824
:100090008902000889020008890200088902000814
:1000A0008902000889020008890200080D1400086E
:1000B00089020008890200088902000889020008F4
:1000C00089020008890200088902000889020008E4
:1000D0000000000089020008890200088902000867
:1000E00089020008890200088902000889020008C4
:1000F0008902000889020008890200080000000047
:100100000000000089020008890200088902000836
:100110008902000889020008890200088902000893
:1001200089020008890200088DD600089DD60008C3
:10013000ADD60008000000000000000089020008A1
:10014000890200080000000000000000000000001C
:10015000000000000000000089020008000000000C
:100160000000000000000000890200088902000869
:10017000000000000000000000000000000000007F
:10018000000000000000000000000000000000006F
:10019000000000000000000000000000000000005F
:1001A0000000000000000000890200088902000829
:1001B00089020008890200088902000889020008F3
:1001C0008902000889020008000000000000000009
:1001D000000000000000000000000000890200088C
:1001E000890200080000000000000000000000007C
:1001F00000000000000000000000000000000000FF
:1002000000000000890200088902000800000000C8
:10021000000000008902000800000000000000004B
:10022000000000000000000000000000890200083B
:10023000890200080000000000000000000000002B
:10024000000000000000000000000000890200081B
:100250008902000889020008DFF80CD000F0A2F83B
:100260000048004725EA0008780F0020074880472B
:1002700007480047FEE7FEE7FEE7FEE7FEE7FEE78A
:10028000FEE7FEE7FEE7FEE7FEE7000031B9000803
:10029000590200082DE9F05F0546002092469B4672
:1002A00088460646814640241BE02846414647468C
:1002B000224600F066F853465A46C01A914110D3C0
:1002C00011461846224600F04DF82D1A67EB01083A
:1002D0004F4622460120002100F044F817EB0009A8
:1002E0004E41201EA4F10104DFDC484631462A4677
:1002F0004346BDE8F09F40EA01039B0703D009E0B5
:1003000008C9121F08C0042AFAD203E011F8013B01
:1003100000F8013B521EF9D27047D2B201E000F85A
:10032000012B491EFBD270470022F6E710B5134699
:100330000A4604461946FFF7F0FF204610BD10B5E7
:10034000044604E00B7800F8013B03B1491C521E3F
:10035000F8D2204610BD421C10F8011B0029FBD129
:10036000801A7047202A04DB203A00FA02F10020AC
:1003700070479140C2F1200320FA03F319439040E3
:100380007047202A04DB203A21FA02F0002170474E
:1003900021FA02F3D040C2F12002914008431946ED
:1003A000704700001CB509480090094801900546B7
:1003B000009C06E0E06840F0010394E807009847DD
:1003C0001034AC42F6D3FFF74BFF0000E0F9000811
:1003D00000FA000830B58C1810F8012B12F00F034A
:1003E00001D110F8013B120906D110F8012B03E0EE
:1003F00010F8015B01F8015B5B1EF9D101E001F827
:10040000013B521EFBD1A142E6D3002030BD0000CB
:10041000FFE7FEE783B00290ADF80610FF208DF8ED
:1004200005008DF80400FFE7BDF80600411EADF899
:100430000610E0B1FFE79DF8040002994A1C029201
:100440000978484000909DF80500009A4FF2C87165
:10045000C0F60001895C48408DF8040000994FF611
:10046000C800C0F60000405C8DF80500DCE79DF890
:1004700005109DF8040040EA012003B07047000019
:1004800083B002900191FF208DF8030000208DF8C9
:100490000200FFE79DF802000199884219DAFFE7A0
:1004A0009DF8030002999DF80220895C48408DF870
:1004B00003009DF8031040F21E00C2F20000405CF1
:1004C0008DF80300FFE79DF8020001308DF802006F
:1004D000E0E79DF80300C0438DF803009DF803009A
:1004E00003B0704780B584B0002003900290019063
:1004F00040F2A471C2F200010120087040F2A41081
:10050000C2F200000078E0B9FFE740F2C830C2F262
:1005100000000078032814D0FFE702F037FA40F219
:10052000A811C2F20001086040F2A411C2F2000159
:100530000120087040F2B471C2F20001002008608E
:10054000FFE740F2A410C2F200000078002800F09B
:100550008980FFE740F26471C2F2000101F12002DC
:1005600040F22010C2F2000009F01AFE0390039836
:1005700001283DD1FFE701200290FFE70298032800
:1005800035DCFFE701200190FFE70198032821DC1B
:10059000FFE70299019800EB810140F26470C2F21A
:1005A000000000EB4100008C40F26822C2F2000221
:1005B000D169126A891A884207D8FFE740F2B471FC
:1005C000C2F200010120086004E0FFE70198013059
:1005D0000190DAE740F2B470C2F20000006808B19E
:1005E000FFE704E0FFE7029801300290C6E7FFE76B
:1005F00040F2B470C2F20000006890B3FFE702F06E
:10060000C5F940F2A811C2F200010968401A009031
:1006100040F2B411C2F200010120086040F2A4715E
:10062000C2F200010020087040F66D11C2F2000114
:10063000087040F2A411C2F20001087040F2682074
:10064000C2F20000C06A0099884209D0FFE7009812
:1006500040F26821C2F20001C8620EF09BFBFFE786
:10066000FFE7FFE704B080BD83B002900191029BD9
:100670001A6958699969D3F81CC040EA0C00DB6B11
:1006800018431043084301990860029800788006D7
:1006900000281BD5FFE702994A6A8B6AC86A896BF2
:1006A00008430021CFF6F07101EB035101F07C719A
:1006B00008436FF00F0101EB021101F47C7140EA75
:1006C00001020199086810430860FFE70298416839
:1006D000006B40F2FF2211400843019948600298E4
:1006E000C068B0F5806F0DD1FFE7029800788006F2
:1006F000002806D5FFE70199486840F4806048600B
:10070000FFE70DE00298C068B0F5007F06D1FFE773
:100710000199486840F40070486000E0FFE7FFE797
:100720000298426B01994868104348600298406CF7
:1007300070B1FFE70299086C4A6C896C104301F0B4
:100740003F0140EA01420199486810434860FFE7D1
:100750000298B0F8680001998860029800788007D4
:10076000002859D5FFE70298C16C0020CFF6FF7032
:1007700000EB01400021C0F2FF7100EA0102019983
:100780008868104388600298006DB0F1FF3F06DC76
:10079000FFE70199886840F08050886005E0019982
:1007A000886820F080508860FFE70298406DB0F1C3
:1007B000FF3F06DCFFE70199886840F00050886041
:1007C00005E00199886820F000508860FFE70298F2
:1007D000806DB0F1FF3F06DCFFE70199886840F0CB
:1007E0008040886005E00199886820F0804088603A
:1007F000FFE70298C06DB0F1FF3F06DCFFE701990B
:10080000886840F00040886005E00199886820F021
:1008100000408860FFE7FFE70298006E0199C8601A
:100820000298406E019908610298007880070028BC
:100830006AD5FFE70298006DB0F1FF3F0ADCFFE7E1
:100840000298006D4042009000986FF35F3001996C
:10085000486106E00298006D6FF35F3001994861CE
:10086000FFE70298406DB0F1FF3F0FDCFFE7029811
:10087000406D4042009000990020C1F6FF7000EAF0
:10088000014201994869104348610BE00298416DAB
:100890000020C1F6FF7000EA014201994869104347
:1008A0004861FFE70298806DB0F1FF3F09DCFFE788
:1008B0000298806D40420090BDF800000199886167
:1008C00005E00298B0F8580001998861FFE70298A6
:1008D000C06DB0F1FF3F0BDCFFE70298C06D4042F6
:1008E0000090009A0199886940EA0240886107E017
:1008F0000298C26D0199886940EA02408861FFE769
:1009000001990020C86103E0019900204861FFE7D8
:100910000298006801990862029800788007002810
:1009200006D5FFE70199086A40F4E060086205E037
:100930000199086A40F4A0600862FFE703B07047BD
:1009400086B0049003910292049803990843029997
:1009500008434FF6FF7188430190002000900498EF
:1009600018B1FFE7049800900EE0039818B1FFE774
:100970000398009007E0029818B1FFE702980090F2
:1009800000E0FFE7FFE7FFE70198BDF80210B0EBDA
:10099000014F03D0FFE70120059002E00020059001
:1009A000FFE7059806B0704785B003900291019269
:1009B00000200090039828B1FFE7039890F82000EA
:1009C000009012E0029828B1FFE7029890F820000A
:1009D000009009E0019828B1FFE7019890F8200005
:1009E000009000E0FFE7FFE7FFE7029858B1FFE75C
:1009F0000098029991F82010884203D0FFE7022066
:100A0000049011E0FFE7019858B1FFE700980199C1
:100A100091F82010884203D0FFE70320049003E000
:100A2000FFE700200490FFE7049805B0704700003E
:100A300089B00790069105920020049003900290DF
:100A4000059800680190069828BBFFE7FFE7049827
:100A50000799896888421DD2FFE7049838B9FFE7F3
:100A6000079800684FF6FC71084003900EE0039869
:100A7000029003980799498800EB0140019950F8CA
:100A800021004FF6FC7108400390FFE70498013005
:100A90000490DCE734E0FFE70499079882680020BF
:100AA000914200900AD2FFE7039806994FF6FC7234
:100AB0001140401A18BF01200090FFE70098C007BE
:100AC000E8B1FFE7049838B9FFE7079800684FF6E8
:100AD000FC71084003900EE0039802900398079978
:100AE000498800EB0140019950F821004FF6FC7154
:100AF00008400390FFE7049801300490CCE7FFE73B
:100B0000069860B1FFE7039806994FF6FC72114012
:100B1000884203D0FFE70120089029E0FFE704980E
:100B20000599886002980799498840EA014005992B
:100B3000486003980799498840EA01400599C860D0
:100B40000598C068019950F8210070B1FFE7059938
:100B5000C868019A50F822004FF6FC721040079ABC
:100B6000528840EA02400861FFE700200890FFE752
:100B7000089809B07047000083B00290019100927C
:100B8000029890F820008007002811D5FFE701980F
:100B900030B1FFE701990020CFF601600860FFE760
:100BA000009820B1FFE7009907200860FFE710E0F8
:100BB000019830B1FFE701990020CFF601000860ED
:100BC000FFE7009820B1FFE7009905200860FFE7E4
:100BD000FFE703B07047000084B003900399886B6F
:100BE000C96B084302900398016801205022C4F2A7
:100BF00002029142019000F0A980FFE7039801688A
:100C00000120D022C4F202029142019000F09E80A5
:100C1000FFE703980168012040F25012C4F202027B
:100C20009142019000F09280FFE703980168012053
:100C300040F2D012C4F202029142019000F086808C
:100C4000FFE703980168012040F25022C4F202023B
:100C5000914201907AD0FFE703980168012040F2A9
:100C6000D022C4F20202914201906FD0FFE70398B4
:100C70000168012040F25032C4F202029142019018
:100C800064D0FFE703980168012040F2D032C4F23B
:100C900002029142019059D0FFE7039801680120B8
:100CA00041F25002C4F20202914201904ED0FFE79D
:100CB00003980168012041F2D002C4F2020291427D
:100CC000019043D0FFE703980168012041F25012E0
:100CD000C4F202029142019038D0FFE70398016804
:100CE000012041F2D012C4F20202914201902DD0B3
:100CF000FFE703980168012041F25022C4F202028A
:100D00009142019022D0FFE703980168012041F24F
:100D1000D022C4F202029142019017D0FFE703985B
:100D20000168012041F25032C4F202029142019066
:100D30000CD0FFE7039800684EF63041CBF6FD710A
:100D40000844B0FA80F040090190FFE70198C0071D
:100D500030B1FFE70398016C029808430290FFE767
:100D600003980068406920F44300029908430399FE
:100D700009684861039801680020086403990A68BB
:100D8000496C516403990968886403990968C864C7
:100D900003990968086503980168012040F2503200
:100DA000C4F202029142009022D0FFE7039801684A
:100DB000012040F2D032C4F202029142009017D0DA
:100DC000FFE703980168012041F25032C4F20202A9
:100DD000914200900CD0FFE7039800684EF6304136
:100DE000CBF6FD710844B0FA80F040090090FFE7AF
:100DF0000098C00740B1FFE70398016800204865EC
:100E0000039909688865FFE7039801680020C867AF
:100E100004B0704784B0039002910192009303984C
:100E20000068806C4FF6FF718843BDF800100844DD
:100E3000039909688864039801684FF4FE40C8600C
:100E4000029803990968C8640198039909680865BC
:100E500004B070477047000040F29010C2F20000EA
:100E6000C068012807D1FFE740F2C831C2F2000193
:100E70000120087036E040F29010C2F20000806855
:100E8000012807D1FFE740F2C831C2F20001032078
:100E9000087026E040F29010C2F20000406801287D
:100EA00007D1FFE740F2C831C2F20001022008700A
:100EB00016E040F29010C2F200000068012807D14D
:100EC000FFE740F2C831C2F200010420087006E0DA
:100ED00040F2C831C2F2000101200870FFE7FFE7CD
:100EE000FFE7FFE77047000080B586B000208DF86F
:100EF000160040F2EC30C2F200000068002842D137
:100F0000FFE740F2FA30C2F200000DF0BBFC8DF8B2
:100F100016009DF8160060BBFFE740F2FA30C2F2FF
:100F20000000008840F26821C2F20001896988420D
:100F30001ED9FFE740F2FA30C2F20000008840F20A
:100F40006821C2F200014969884211D2FFE740F2EC
:100F5000FA30C2F20000008840F2E831C2F200012B
:100F6000086040F2EC31C2F2000101200860FFE7A6
:100F700008E0FFF7B9FF40F2EC31C2F200010020B7
:100F80000860FFE7FFE7002004908DF80F00029053
:100F900040F2DC60C2F200000068002867D1FFE781
:100FA00040F26471C2F2000101F1200240F220100F
:100FB000C2F2000009F0F4F80490002001900090C3
:100FC0000498012842D1FFE702200190FFE7019831
:100FD000032824DCFFE700200090FFE700980328A7
:100FE00018DCFFE79DF80F00019A009901EB8202DF
:100FF00040F26471C2F2000101EB4201098C084425
:101000008DF80F00029801300290FFE70098013040
:101010000090E3E7FFE7019801300190D7E79DF8E2
:101020000F00029990FBF1F040F2D861C2F200018A
:10103000086040F2DC61C2F200010120086040F269
:10104000C011C2F20001002008700FE0049818B926
:10105000FFE7FFF749FF08E040F2DC61C2F2000160
:10106000002008608DF8170056E0FFE7FFE740F228
:10107000EC30C2F200000068012849D1FFE740F2DD
:10108000DC60C2F200000068012841D1FFE740F2B5
:10109000C811C2F200010120086040F2A571C2F23D
:1010A00000010020087040F66E11C2F200010870C5
:1010B00040F2EC31C2F20001086040F2DC61C2F2A1
:1010C0000001086040F26820C2F20000C06840F2EF
:1010D000E831C2F200010968884201D0FFE7FFE76A
:1010E00040F26820C2F20000C06940F2D861C2F24A
:1010F00000010968884201D0FFE7FFE740F2841150
:10110000C2F200010620086001208DF8170003E0FC
:1011100000208DF81700FFE79DF8170006B080BD8E
:1011200081B040F2C830C2F20000007801380146B8
:101130000091032858D80099DFE801F0020E1A2622
:1011400040F2E031C2F200010120086040F2E061AB
:10115000C2F20001086048E040F2E031C2F2000152
:101160000020086040F2E061C2F2000108603CE04B
:1011700040F2E031C2F200010120086040F2E0617B
:10118000C2F20001086030E040F2B032C2F2000268
:101190001068411C116040F26821C2F20001C96A66
:1011A0004CF6CD42CCF6CC42A1FB0221B0EBD10FE4
:1011B0000CD2FFE740F2E031C2F2000101200860EA
:1011C00040F2E061C2F2000108600CE040F2E03160
:1011D000C2F200010120086040F2E061C2F20001A9
:1011E00000200860FFE700E0FFE701B07047000063
:1011F00072B6FFE7FEE7000083B00290019142F271
:101200002800C4F2020000909DF80400C00788B1D5
:10121000FFE7009908684EF23F02C7F6FF721040E0
:101220000860029A0099086840EA821040F02400A1
:1012300008600FE00099086820F4FE500860029AE8
:101240000099086840EA82102422C8F20002104384
:101250000860FFE703B0704782B0019042F22800B7
:10126000C4F202000090019800F00300032807D1A7
:10127000FFE70099086848F22002104308601EE06A
:101280009DF80400C00758B1FFE7009800684FF6CA
:10129000D771C7F6FF710840283000990860FFE752
:1012A0009DF804008007002808D5FFE7009908682A
:1012B0002822C8F2000210430860FFE7FFE702B0EF
:1012C0007047000083B00290019142F22800C4F2FE
:1012D000020000900099086840F002000860019840
:1012E00000880299088003B07047000089B006901A
:1012F000059104208DF8130006980390059802903C
:1013000042F22800C4F2020000900099086840F000
:1013100002000860EFF3108007900798019072B602
:10132000FFE702980068039908600398043003906F
:101330000298043002909DF8130001388DF81300D4
:10134000FFE79DF813000028EBD1FFE70198089014
:10135000089880F3108809B07047000080B586B007
:10136000049001F013FB009042F22000C4F202004E
:101370000290FFE70298006810F00B0F15D0FFE70E
:101380000498013080B1FFE701F000FB0099401A9A
:101390000499884203D8FFE7049820B9FFE70320A7
:1013A0008DF817002EE0FFE7E4E742F23000C4F2C8
:1013B000020001900298006800F41E000390039858
:1013C00088B1FFE7039A40F23411C2F20001486885
:1013D00010434860039800F41E0001990860012042
:1013E0008DF817000EE002980068C003002805D5AC
:1013F000FFE701994FF480300860FFE700208DF887
:101400001700FFE79DF8170006B080BD80B540F2D9
:101410001040C2F2000000F059FD80BD80B584B0DC
:1014200002900191029818B1FFE7019820B9FFE7F7
:1014300001208DF80F001AE002980078800600283D
:1014400001D5FFE7FFE70298406C08B1FFE7FFE72F
:10145000029800788007002801D5FFE7FFE702988F
:101460000199FFF701F900208DF80F00FFE79DF8C3
:101470000F0004B080BD000080B584B0029001F080
:1014800085FA0190029820B9FFE701208DF80F003E
:10149000F1E00298016801205022C4F20202914258
:1014A000009000F0A980FFE7029801680120D02297
:1014B000C4F202029142009000F09E80FFE7029881
:1014C0000168012040F25012C4F2020291420090E1
:1014D00000F09280FFE702980168012040F2D012EC
:1014E000C4F202029142009000F08680FFE7029869
:1014F0000168012040F25022C4F2020291420090A1
:101500007AD0FFE702980168012040F2D022C4F2AD
:101510000202914200906FD0FFE70298016801201B
:1015200040F25032C4F202029142009064D0FFE7D0
:1015300002980168012040F2D032C4F202029142C6
:10154000009059D0FFE702980168012041F2500253
:10155000C4F20202914200904ED0FFE70298016867
:10156000012041F2D002C4F202029142009043D025
:10157000FFE702980168012041F25012C4F2020212
:101580009142009038D0FFE702980168012041F2B3
:10159000D012C4F20202914200902DD0FFE70298CF
:1015A0000168012041F25022C4F2020291420090EF
:1015B00022D0FFE702980168012041F2D022C4F254
:1015C00002029142009017D0FFE7029801680120C3
:1015D00041F25032C4F20202914200900CD0FFE777
:1015E000029800684EF63041CBF6FD710844B0FA1F
:1015F00080F040090090FFE70098C00708B1FFE7BE
:10160000FFE7FFE70299002081F84C00FFE702990D
:10161000022081F8540002980168486940F00600F1
:101620004861FFE7029800684069C00798B1FFE78A
:1016300001F0ACF90199401A06280BD3FFE7029993
:10164000102088650299032081F8540001208DF84C
:101650000F0010E0E6E70298FFF7BEFA0299886CE7
:101660000865029900208865029A012182F85410C9
:101670008DF80F00FFE79DF80F0004B080BD00005B
:1016800080B58CB00A90099108920A9818B1FFE7CA
:10169000089820B9FFE701208DF82F00B9E00A98DB
:1016A0004069012807D1FFE70A9904200861012059
:1016B0008DF82F00ADE00A9800680999089AFFF7A5
:1016C0003FF938B1FFE70A990520086101208DF83C
:1016D0002F009EE00A9800680999089AFFF764F9BC
:1016E00038B1FFE70A990420086101208DF82F0026
:1016F0008FE00A99022008730A990020086108986F
:1017000007A906AAFFF738FA0A980068E0B9FFE7C8
:10171000099838B9FFE708980A9908600A990120E2
:10172000886010E009980A99086008984FF6FC71E3
:101730000840079908430999069A41F822000A9936
:1017400002208860FFE75BE0099878B9FFE70A9814
:1017500000684FF6FC710840079908430899069AFB
:1017600041F8220008980A99086044E00698019020
:101770000A98099901AAFFF75BF9A0BBFFE7039854
:101780000A99896888421BD1FFE70A98406860B1CE
:10179000FFE70A9840684FF6FC7108400799084334
:1017A0000899069A41F82200FFE708984FF6FC7165
:1017B0000840079908430999069A41F8220011E068
:1017C0000998069A50F82200089941F822000898D2
:1017D0004FF6FC710840079908430999069A41F8A9
:1017E0002200FFE706E00A990620086101208DF833
:1017F0002F000EE0FFE70A99886801308860FFE754
:101800000A99002008610A9A012111738DF82F00AE
:10181000FFE79DF82F000CB080BD000085B003905D
:101820000291039818B1FFE7029820B9FFE7012061
:101830008DF813008BE0039890F854008DF80700A2
:10184000039890F85400022805D0FFE79DF80700A0
:1018500005280DD1FFE7039940208865FFE703992C
:10186000002081F84C00FFE701208DF813006EE0A6
:101870000298007B022806D1FFE702990120086147
:101880008DF8130063E003980168012040F25032A4
:10189000C4F202029142009022D0FFE7039801684F
:1018A000012040F2D032C4F202029142009017D0DF
:1018B000FFE703980168012041F25032C4F20202AE
:1018C000914200900CD0FFE7039800684EF630413B
:1018D000CBF6FD710844B0FA80F040090090FFE7B4
:1018E0000098C00778B9FFE70298006890F82000D8
:1018F0008007002807D5FFE702990320086101202F
:101900008DF8130023E00398006D81280CD1FFE7C8
:101910000298406838B9FFE7029904200861012065
:101920008DF8130013E00BE00298406838B1FFE730
:1019300002990420086101208DF8130007E0FFE7F9
:1019400002980399486700208DF81300FFE79DF87F
:10195000130005B07047000080B58AB00890089861
:1019600020B9FFE701208DF8270056E008980068AD
:1019700038B9FFE708990220086101208DF8270097
:101980004BE00898406888B1FFE708980168406814
:10199000884204D1FFE700208DF827003DE0089938
:1019A0000420086101208DF8270036E0089840697E
:1019B000012807D1FFE708990420086101208DF86C
:1019C00027002AE008990220087308990020009057
:1019D00008610898006807A906AAFFF7CDF80099E2
:1019E00006980190089801AAFFF722F80098089934
:1019F00009684FF6FC721140079A1143049A069B3E
:101A000042F82310089A1168516008990861089AF1
:101A1000012111738DF82700FFE79DF827000AB018
:101A200080BD000080B586B00490049820B1FFE727
:101A30000498406F20B9FFE701208DF8170088E077
:101A4000049890F854008DF80F00049800684069DD
:101A500000F4803002909DF80F00012809D0FFE7C4
:101A60009DF80F00022863D1FFE7029800285FD09D
:101A7000FFE7049890F85400012852D1FFE7FFE7F0
:101A8000049890F84C00012804D1FFE702208DF85B
:101A900017005EE00499012081F84C00FFE7FFE7A2
:101AA0000499022081F854000499496F087304993D
:101AB000002088650499496F0861049801684869A5
:101AC00040F4BA4048610498406E38B1FFE704988A
:101AD0000168486940F400704861FFE70498006FAE
:101AE00038B1FFE704980168486940F40050486144
:101AF000FFE70498406F006801A90022FFF73CF857
:101B000004980168406F40880004086004980168E8
:101B1000406F00684FF6FC721040019A1043C8678E
:101B2000FFE704980168486940F0010048610CE053
:101B3000049940208865FFE70499002081F84C0053
:101B4000FFE701208DF8170003E000208DF8170053
:101B5000FFE79DF8170006B080BD000080B584B097
:101B6000029000F013FF0190029820B9FFE70120D6
:101B70008DF80F0079E0029890F8540002280DD0FB
:101B8000FFE7029920208865FFE70299002081F88D
:101B90004C00FFE701208DF80F0066E00298016815
:101BA000486940F0040048610299052081F854001A
:101BB000FFE70298006800698004002827D4FFE747
:101BC00000F0E4FE0199401A06281FD3FFE70299AE
:101BD000886D40F0100088650299032081F8540058
:101BE000029890F850000006002805D5FFE70298FB
:101BF000416F01200873FFE7FFE70299002081F899
:101C00004C00FFE701208DF80F002EE0D1E702988D
:101C10000168486940F0020048610299042081F897
:101C20005400029801684FF4FE40C86002990120F8
:101C300081F85400029890F850000006002809D559
:101C4000FFE70298416F01200873029801680020A5
:101C50008864FFE7FFE70299002081F84C00FFE766
:101C6000FFE700208DF80F00FFE79DF80F0004B09C
:101C700080BD000082B00090009820B9FFE70120ED
:101C80008DF807001CE0009890F85400022807D057
:101C9000FFE700992020886501208DF807000FE0FC
:101CA0000099042081F8540000980168486942F2C4
:101CB000040210434861FFE700208DF80700FFE7AA
:101CC0009DF8070002B0704785B003900291039819
:101CD00020B9FFE701208DF813002AE0039800687F
:101CE00040F6FF7188430190039800685038C0F3B4
:101CF000C4110120884000909DF80800C00600280B
:101D000013D5FFE7029800F01100112806D1FFE774
:101D1000009A019948681043486005E0009A0199CB
:101D2000486890434860FFE7FFE700208DF8130004
:101D3000FFE79DF8130005B07047000080B586B03E
:101D4000049000F023FE0290049820B9FFE70120E0
:101D50008DF81700B0E00498006840F6FF718843E2
:101D6000039004980168486940F006004861FFE765
:101D7000049800684069C00798B1FFE700F006FECC
:101D80000299401A06280BD3FFE7049910208865B2
:101D90000499032081F8540001208DF817008BE08E
:101DA000E6E704980168002000900860049909683B
:101DB00048610499096808640499096848640499A9
:101DC0000968886404990968C86404990968086501
:101DD00004990968C86704980168012040F25032EC
:101DE000C4F202029142019022D0FFE704980168F8
:101DF000012040F2D032C4F202029142019017D089
:101E0000FFE704980168012041F25032C4F2020257
:101E1000914201900CD0FFE7049800684EF63041E3
:101E2000CBF6FD710844B0FA80F040090190FFE75D
:101E30000198C00740B1FFE7049801680020486599
:101E4000049909688865FFE7049800685038C0F372
:101E5000C411012000FA01F20399486890434860D8
:101E6000049801684FF4FE40C86004990020086699
:101E700004994866049988660499C86604990867B5
:101E8000049948670498C06D20B1FFE704990020C9
:101E9000C865FFE7049900200865049988650499DE
:101EA00081F85400FFE70499002081F84C00FFE717
:101EB00000208DF81700FFE79DF8170006B080BDE1
:101EC00081B000900098806D01B0704780B584B0FB
:101ED00003900398006840F6FF71884302900398CE
:101EE00000685038C0F3C411012088400190029866
:101EF000C068019908400090009808B9FFE74DE1DB
:101F00000398006800694005002813D5FFE703988F
:101F100000684069400500280BD5FFE70398016879
:101F20004FF48060C8600399886D40F001008865B7
:101F3000FFE7FFE70398006800690005002813D554
:101F4000FFE7039800684069000500280BD5FFE70C
:101F5000039801684FF40060C8600399886D40F0F1
:101F600002008865FFE7FFE7039800680069C00486
:101F7000002813D5FFE7039800684069C0040028D3
:101F80000BD5FFE7039801684FF48050C8600399B0
:101F9000886D40F004008865FFE7FFE7039800685C
:101FA00000694004002813D5FFE7039800684069E2
:101FB000400400280BD5FFE7039801684FF48040E8
:101FC000C8600399886D40F008008865FFE7FFE767
:101FD0000398006800698005002816D5FFE703987C
:101FE00000684069800500280ED5FFE70398016866
:101FF0004FF40070C8600398406E20B1FFE703986B
:10200000416E8847FFE7FFE7FFE703980068006934
:102010008004002850D5FFE70398006840698004D9
:10202000002848D5FFE7039801684FF40050C860C6
:10203000039890F8540004282FD1FFE70398016813
:10204000486920F40050486103980168486940F0ED
:10205000020048610399012081F85400039890F828
:1020600050000006002809D5FFE70398416F0120C2
:1020700008730398016800208864FFE7FFE703996D
:10208000002081F84C00FFE70398C06E20B1FFE705
:102090000398C16E8847FFE780E00399052081F827
:1020A00054000398006F20B1FFE70398016F884741
:1020B000FFE7FFE7FFE7FFE7039800680069C00557
:1020C000002842D5FFE7039800684069C005002852
:1020D0003AD5FFE7039890F850000006002814D581
:1020E000FFE703980068C06F70B9FFE703980068C6
:1020F000806C40B9FFE70399012081F854000399EF
:10210000496F0873FFE7FFE70AE003980068806CF7
:1021100028B9FFE70399012081F85400FFE7FFE7A2
:10212000039801684FF44070C860FFE703990020EE
:1021300081F84C00FFE70398006E20B1FFE7039899
:10214000016E8847FFE7FFE7FFE70398806D28B33C
:10215000FFE703980168486940F00200486103996D
:10216000012081F85400039890F8500000060028E0
:1021700005D5FFE70398416F01200873FFE7FFE7EC
:102180000399002081F84C00FFE70398806E20B18E
:10219000FFE70398816E8847FFE7FFE704B080BD43
:1021A00080B586B00490039102920193049820B9FF
:1021B000FFE701208DF8170057E0FFE7049890F83B
:1021C0004C00012804D1FFE702208DF817004CE0F5
:1021D0000499012081F84C00FFE7FFE7049890F88C
:1021E0005400012830D1FFE70499022081F85400FF
:1021F00004990020886504980399029A019BFEF7D0
:1022000009FE04980168486940F4BA40486104989E
:10221000406E38B1FFE704980168486940F40070E7
:102220004861FFE70498006F38B1FFE70498016840
:10223000486940F400504861FFE704980168486924
:1022400040F0010048610CE0049940208865FFE7F8
:102250000499002081F84C00FFE701208DF8170059
:1022600003E000208DF81700FFE79DF8170006B087
:1022700080BD000080B584B0039000F087FB029021
:10228000039801900198013048B1FFE740F28A10AD
:10229000C2F200000178019808440190FFE7FFE7CF
:1022A00000F074FB0299401A0199884201D2FFE7BD
:1022B000F6E704B080BD000080B586B004900391BD
:1022C000FFE740F23410C2F200000078012804D188
:1022D000FFE702208DF8170079E040F23411C2F2D6
:1022E000000101200870FFE7FFE740F23411C2F25D
:1022F0000001002048604FF47A70FFF72FF88DF846
:102300000B009DF80B00002854D1FFE704980068EB
:1023100040F23411C2F20001886042F22800C4F297
:10232000020000900498006820F0004048F2080184
:1023300088420BD1FFE704984068FEF78DFF4FF409
:102340007A70FFF70BF88DF80B0028E003994FF037
:10235000FF300860049880680190FFE701980499B5
:102360008A68C9681144884218D2FFE70198049925
:102370004968FEF741FF4FF47A70FEF7EFFF8DF8E2
:102380000B009DF80B0020B1FFE70198039908604E
:1023900004E0FFE7019801300190DFE7FFE70498D0
:1023A00001684FF0004060EA01020099086810409F
:1023B0000860FFE7FFE740F23411C2F2000100209D
:1023C0000870FFE79DF80B008DF81700FFE79DF8F8
:1023D000170006B080BD000081B000208DF803001A
:1023E00042F22800C4F20200016841F001010160DC
:1023F0000068C00720B9FFE701208DF80300FFE760
:102400009DF8030001B0704780B586B00590049137
:10241000039240F23411C2F20001002048604FF4F0
:102420007A70FEF79BFF8DF80B009DF80B0058BBF0
:10243000FFE7059840F23411C2F20001886042F2D1
:102440002800C4F202000190059820F00040022804
:1024500005D1FFE704980399FEF748FF04E00498CC
:102460000399FEF72FFFFFE74FF47A70FEF776FF30
:102470008DF80B0005994FF0204060EA01020199A8
:10248000086810400860FFE79DF80B0006B080BDAB
:1024900081B000208DF8030042F22800C4F202004F
:1024A0000068C007D8B1FFE742F20401C4F202019C
:1024B00040F22310C4F26750086048F6AB10CCF627
:1024C000EF50086042F22800C4F202000068C00722
:1024D00020B1FFE701208DF80300FFE7FFE79DF83B
:1024E000030001B07047000085B004900391002004
:1024F0000090FFE703980099C840002800F09980F9
:10250000FFE70398009A012191400840019001984B
:10251000002800F08A80FFE7009820F0030042F2D4
:102520006001C4F2024140580290009800F003009C
:10253000C1000F2000FA01F10298084002900298B1
:1025400004994FF60042CBF6FD521140890A009AD9
:1025500002F00302D2009140884233D1FFE7019A92
:1025600042F28001C4F20241086890430860019A77
:1025700042F28401C4F20241086890430860019A63
:1025800042F20001C4F20241086890430860019AD7
:1025900042F20401C4F202410868904308600098C6
:1025A00000F00300C1000F2088400290029B0098B9
:1025B00020F0030142F26002C4F2024288589843BC
:1025C0008850FFE700984100032000FA01F3049AC5
:1025D000116819431160DDF800C00CF007018A0092
:1025E0000F2101FA02F304996FF0030202EA5C0280
:1025F0000A44116A994311620099490000FA01F3F3
:10260000049A916899439160009A012101FA02F3BA
:10261000049A5168994351600099490000FA01F207
:102620000499C8689043C860FFE7009801300090A3
:1026300060E705B07047000085B00490039100206A
:102640000090FFE7039800680099C840002800F058
:102650005881FFE703980068009A012191400840E3
:1026600001900198002800F04881FFE70398406836
:10267000022805D0FFE703984068122828D1FFE719
:10268000049800996FF0030202EA51010844006ABD
:102690000290009800F0070081000F2000FA01F17D
:1026A0000298884302900398006900F00F00009997
:1026B00001F00701890000FA01F102980843029035
:1026C00002980499009B02EA530211440862FFE752
:1026D00004980068029000984100032000FA01F17C
:1026E0000298884302900398406800F00300009924
:1026F000490000FA01F102980843029002980499F7
:1027000008600398406801280FD0FFE703984068ED
:1027100002280AD0FFE703984068112805D0FFE798
:102720000398406812282FD1FFE704988068029030
:1027300000984100032000FA01F1029888430290BA
:102740000398C0680099490000FA01F10298084313
:102750000290029804998860049840680290009959
:10276000012000FA01F10298884302900398406822
:10277000C0F30010009900FA01F10298084302909A
:10278000029804994860FFE703984068032818D02E
:10279000FFE70498C068029000984100032000FA07
:1027A00001F10298884302900398806800994900DB
:1027B00000FA01F102980843029002980499C86057
:1027C000FFE70398C079C006002840F19580FFE735
:1027D000009820F0030042F26002C4F202428058E6
:1027E0000290009800F00300C1000F2000FA01F1F0
:1027F00002988843029004984FF60041CBF6FD51B1
:102800000840800A009901F00301C90000FA01F1B3
:102810000298084302900298009921F00301885021
:1028200042F20000C4F2024000680290019902984E
:102830008843029003988079C006002805D5FFE7F9
:102840000199029808430290FFE7029842F20001C2
:10285000C4F20241086042F20400C4F2024000687F
:10286000029001990298884302900398807980062B
:10287000002805D5FFE70199029808430290FFE779
:10288000029842F20401C4F20241086042F284005C
:10289000C4F20240006802900199029888430290B5
:1028A000039880798007002805D5FFE701990298F1
:1028B00008430290FFE7029842F28401C4F2024109
:1028C000086042F28000C4F2024000680290019960
:1028D00002988843029003988079C00728B1FFE7E7
:1028E0000199029808430290FFE7029842F28001A2
:1028F000C4F202410860FFE7FFE700980130009052
:10290000A0E605B07047000082B00190ADF802105B
:1029100001980069BDF80210084204D0FFE70120C9
:102920008DF8010003E000208DF80100FFE79DF81D
:10293000010002B07047000083B00290ADF80610AD
:10294000029840690090009ABDF8060002EA000172
:10295000904340EA01400299886103B0704700004B
:1029600082B00190ADF802108DF801209DF80100B1
:1029700028B1FFE7BDF802000199886104E0BDF8C5
:10298000020001998862FFE702B0704740F66C30A0
:10299000C2F200000068704783B001900091019876
:1029A00090F8410020283BD1FFE7FFE7019890F81D
:1029B0004000012804D1FFE702208DF80B0033E02E
:1029C0000199012081F84000FFE7FFE701992420E9
:1029D00081F8410001980168086820F00100086052
:1029E00001980168086820F480500860009A0198F6
:1029F000016808681043086001980168086840F0A1
:102A0000010008600199202081F84100FFE7019949
:102A1000002081F84000FFE700208DF80B0003E064
:102A200002208DF80B00FFE79DF80B0003B0704704
:102A300084B002900191029890F84100202840D182
:102A4000FFE7FFE7029890F84000012804D1FFE774
:102A500002208DF80F0038E00299012081F8400033
:102A6000FFE7FFE70299242081F8410002980168FE
:102A7000086820F001000860029800680068009073
:102A8000009820F4706000900199009840EA0120BD
:102A90000090009802990968086002980168086827
:102AA00040F0010008600299202081F84100FFE712
:102AB0000299002081F84000FFE700208DF80F0008
:102AC00003E002208DF80F00FFE79DF80F0004B02F
:102AD0007047000080B582B00090009820B9FFE7F1
:102AE00001208DF807007BE0009890F8410040B984
:102AF000FFE70099002081F84000009800F0F4FA08
:102B0000FFE70099242081F84100009801680868D7
:102B100020F00100086000980168406820F07060B3
:102B2000086100980168886820F400408860009877
:102B3000C068012807D1FFE700980168806840F469
:102B40000040886006E000980168806840F4044016
:102B50008860FFE70098C068022807D1FFE7009867
:102B60000168486840F40060486006E00098016829
:102B7000486820F400604860FFE7009801684868F2
:102B800048F20002C0F20022104348600098016839
:102B9000C86820F40040C860009A11681069536941
:102BA0009269184340EA0220C860009A1168D0690F
:102BB000126A1043086000980168086840F001003C
:102BC0000860009900204864009A202182F8411092
:102BD00000990863009981F842008DF80700FFE72B
:102BE0009DF8070002B080BD10B588B084460C98EF
:102BF0000B98DDF828E0CDF818C0ADF81610ADF848
:102C00001420ADF81230ADF81000069890F841008D
:102C1000202840F02681FFE70A9820B1FFE7BDF8A1
:102C2000100040B9FFE706994FF400704864012096
:102C30008DF81F0019E1FFE7069890F84000012881
:102C400004D1FFE702208DF81F000EE10699012054
:102C500081F84000FFE7FFE7FFF798FE0390069832
:102C600003996A4611604FF400410122192306F0CE
:102C7000FBFE20B1FFE701208DF81F00F5E006996B
:102C8000222081F841000699402081F842000699EF
:102C9000002048640A99069A5162BDF81010069AFD
:102CA0005185069948630698BDF81610BDF81420A2
:102CB000BDF81230DDF830C0039CEE46CEF804407B
:102CC000CEF800C006F0E6FD50B1FFE7FFE7069939
:102CD000002081F84000FFE701208DF81F00C4E0CC
:102CE0000698408DB0F5807F14D3FFE70699FF204A
:102CF00008850698BDF8161090F82820EC4642F298
:102D00000043C8F20003CCF800304FF0807306F0A7
:102D100081FE14E00698408D069908850698BDF856
:102D2000161090F82820EC4642F20043C8F2000347
:102D3000CCF800304FF0007306F06CFEFFE7FFE7C1
:102D400006980C9B03996A4611600421002206F044
:102D50008BFE20B1FFE701208DF81F0085E006986B
:102D60000068406A0699496A08700699486A013005
:102D700048620699088D013808850699488D013802
:102D800048850698408DE8B3FFE70698008DC8BBDC
:102D9000FFE706980C9B03996A4611608021002288
:102DA00006F062FE20B1FFE701208DF81F005CE015
:102DB0000698408DB0F5807F11D3FFE70699FF207C
:102DC00008850698BDF8161090F82820EC460023D8
:102DD000CCF800304FF0807306F01CFE11E006982E
:102DE000408D069908850698BDF8161090F82820A1
:102DF000EC460023CCF800304FF0007306F00AFEDA
:102E0000FFE7FFE7FFE70698408D002898D1FFE72E
:102E100006980C99039A06F089FE20B1FFE701207D
:102E20008DF81F0021E0069801682020C8610699EE
:102E30000A6851684EF60003CFF6006319405160EE
:102E4000069981F841000699002081F84200FFE7C9
:102E50000699002081F84000FFE700208DF81F0050
:102E600003E002208DF81F00FFE79DF81F0008B067
:102E700010BD000010B588B084460C980B98DDF8A2
:102E800028E0CDF818C0ADF81610ADF81420ADF854
:102E90001230ADF81000069890F84100202840F05C
:102EA0001B81FFE70A9820B1FFE7BDF8100040B989
:102EB000FFE706994FF40070486401208DF81F0069
:102EC0000EE1FFE7069890F84000012804D1FFE7E3
:102ED00002208DF81F0003E10699012081F84000CF
:102EE000FFE7FFE7FFF752FD0390069803996A4654
:102EF00011604FF400410122192306F0B5FD20B105
:102F0000FFE701208DF81F00EAE00699212081F8F3
:102F100041000699402081F842000699002048644B
:102F20000A99069A5162BDF81010069A51850699C1
:102F300048630698BDF81610BDF81420BDF812308D
:102F4000DDF830C0039CEE46CEF80440CEF800C059
:102F500006F000FD50B1FFE7FFE70699002081F879
:102F60004000FFE701208DF81F00B9E00698408D72
:102F7000B0F5807F11D3FFE70699FF2008850698FA
:102F8000BDF8161090F82820EC460023CCF800304D
:102F90004FF0807306F03EFD11E00698408D0699D3
:102FA00008850698BDF8161090F82820EC460023F6
:102FB000CCF800304FF0007306F02CFDFFE7FFE780
:102FC00006980C99039A06F003FE20B1FFE7012052
:102FD0008DF81F0084E006980168406A00788862D6
:102FE0000699486A013048620699488D013848853B
:102FF0000699088D013808850698408DE8B3FFE7EB
:103000000698008DC8BBFFE706980C9B03996A469B
:1030100011608021002206F027FD20B1FFE701208A
:103020008DF81F005CE00698408DB0F5807F11D3CD
:10303000FFE70699FF2008850698BDF8161090F85E
:103040002820EC460023CCF800304FF0807306F0C7
:10305000E1FC11E00698408D069908850698BDF8B8
:10306000161090F82820EC460023CCF800304FF0E2
:10307000007306F0CFFCFFE7FFE7FFE70698408DFF
:1030800000289DD1FFE706980C99039A06F04EFDA3
:1030900020B1FFE701208DF81F0021E006980168AC
:1030A0002020C86106990A6851684EF60003CFF6E1
:1030B000006319405160069981F84100069900208B
:1030C00081F84200FFE70699002081F84000FFE701
:1030D00000208DF81F0003E002208DF81F00FFE79D
:1030E0009DF81F0008B010BD80B5AAB0299000203F
:1030F0002890279026902590249002A88821FDF7FB
:1031000013F92998006845F20041C4F20001884291
:103110003DD1FFE7002003904FF40051029113903E
:1031200002A801F089FC18B1FFE7FEF761F8FFE79C
:10313000FFE740F68C40C4F20240016841F0020112
:103140000160006800F0020001900198FFE7C020D4
:10315000249012202590002026902790042028906B
:1031600040F20040C4F2022024A9FFF765FAFFE70D
:1031700040F69C40C4F20240016841F40011016035
:10318000006800F4001000900098FFE7FFE72AB005
:1031900080BD000082B0019000208DF8030040F255
:1031A0000040C4F203000068C00720B1FFE701201F
:1031B0008DF803000AE040F20041C4F20301086800
:1031C00020F00400019A10430860FFE79DF8030017
:1031D00002B0704780B582B000208DF8070040F241
:1031E0000C41C4F203010220086040F20041C4F225
:1031F0000301086820F001000860FFF7C7FB00909A
:10320000FFE740F20040C4F203000068C007A8B125
:10321000FFE7FFF7BBFB0099401A02280DD3FFE739
:1032200040F20040C4F203000068C00720B1FFE78D
:1032300003208DF8070001E0FFE7E2E79DF80700B3
:1032400002B080BD40F20041C4F20301086840F0C2
:10325000010008600020704740F28A10C2F20000AE
:10326000027840F66C31C2F2000108681044086030
:103270007047000080B582B0032000F0E3F802F050
:10328000C9FB40F62041C4F20241096801F00F0277
:103290004FF28871C0F60001895CC84040F200011D
:1032A000C2F200010860042003F052FB0F2000F07E
:1032B00011F820B1FFE701208DF8070005E000F0CC
:1032C00093F800208DF80700FFE79DF8070002B093
:1032D00080BD000080B586B004900020039040F2CD
:1032E0008A10C2F20000007820B9FFE701208DF8B3
:1032F000170075E04EF21000CEF2000000684007A3
:10330000002812D5FFE740F20000C2F2000000687A
:1033100040F28A11C2F200010A784FF47A71B1FBCF
:10332000F2F1B0FBF1F0039040E003F00FFC0290EB
:103330000298019040B1FFE70198012816D0FFE7FD
:103340000198022821D02FE040F20000C2F20000D4
:10335000006840F28A11C2F200010A784FF4FA5173
:10336000B1FBF2F1B0FBF1F003901EE040F28A10E5
:10337000C2F2000001784FF47A70B0FBF1F14FF423
:10338000FA40B0FBF1F003900FE040F28A10C2F275
:10339000000001784FF47A70B0FBF1F14FF4004077
:1033A000B0FBF1F0039000E0FFE7FFE7039803F0C4
:1033B000A7FB20B1FFE701208DF8170010E004996A
:1033C0004FF0FF300022009200F024F8009804999A
:1033D00040F28C12C2F2000211608DF81700FFE774
:1033E0009DF8170006B080BD7047000080B582B020
:1033F000ADF80600BDF906000AF0C2FA02B080BDC1
:1034000080B582B0ADF80600BDF906000AF0D4FA26
:1034100002B080BD80B586B0ADF81600049103926D
:103420000AF0E2FA0290BDF91600019002980499A0
:10343000039A07F0F5FA014601980AF0DDFA06B0A2
:1034400080BD000080B582B0019001980AF0F6FAC4
:1034500002B080BD0AF010FB89B0089040F63440FD
:10346000C4F2024000686FF35F20059040F62840E8
:10347000C4F20240016801F0030107910168C1F341
:10348000052106910068C0F300100490049840F6EE
:103490003841C4F20241096889B2C90800FB01F051
:1034A00000EE100AB8EE400A8DED020A06980028D8
:1034B00000F03D81FFE707980090012808D0FFE762
:1034C0000098022830D0FFE70098032849D065E033
:1034D00040F60040C4F202400068C0F3C10149F266
:1034E0000000C0F2D030C84003909DED030AB8EE52
:1034F000400A9DED061AB8EE411A80EE010A9DEDD4
:10350000051AB8EE411A9DED022A9FED8F3A22EE80
:10351000032A31EE021AB7EE002A31EE021A20EE2B
:10352000010A8DED010A65E09DED060AB8EE401A2C
:103530009FED860A80EE010A9DED051AB8EE411A4C
:103540009DED022A9FED803A22EE032A31EE021A07
:10355000B7EE002A31EE021A20EE010A8DED010AC3
:1035600048E09DED060AB8EE401A9FED760A80EE1F
:10357000010A9DED051AB8EE411A9DED022A9FED54
:10358000723A22EE032A31EE021AB7EE002A31EE29
:10359000021A20EE010A8DED010A2BE040F60040F0
:1035A000C4F202400068C0F3C10149F20000C0F259
:1035B000D030C84003909DED030AB8EE400A9DED5F
:1035C000061AB8EE411A80EE010A9DED051AB8EE12
:1035D000411A9DED022A9FED5C3A22EE032A31EE5C
:1035E000021AB7EE002A31EE021A20EE010A8DED22
:1035F000010AFFE740F60040C4F202400068800183
:10360000002827D5FFE740F62840C4F202400068B2
:10361000C003002819D5FFE79DED010A40F63440AC
:10362000C4F20240006880B2400A01EE100AB8EE0F
:10363000411AB7EE002A31EE021A80EE010A08980C
:10364000BCEEC00A80ED000A03E008990020086083
:10365000FFE703E0089900200860FFE740F600401C
:10366000C4F2024000688001002827D5FFE740F639
:103670002840C4F2024000688003002819D5FFE703
:103680009DED010A40F63440C4F202400068C0F3E8
:10369000064001EE100AB8EE411AB7EE002A31EEEC
:1036A000021A80EE010A0898BCEEC00A80ED010AF9
:1036B00003E0089900204860FFE703E00899002034
:1036C0004860FFE740F60040C4F202400068800115
:1036D000002827D5FFE740F62840C4F202400068E2
:1036E0004003002819D5FFE79DED010A40F634405C
:1036F000C4F202400068C0F3066001EE100AB8EEA2
:10370000411AB7EE002A31EE021A80EE010A08983B
:10371000BCEEC00A80ED020A03E008990020886030
:10372000FFE703E0089900208860FFE707E00899B9
:10373000002008600899486008998860FFE709B090
:10374000704700BF20BCBE4B000000390024744A03
:1037500089B0089040F63C40C4F2024000686FF324
:103760005F20059040F62C40C4F20240016801F051
:10377000030107910168C1F3052106910068C0F3B8
:1037800000100490049840F64041C4F202410968D8
:1037900089B2C90800FB01F000EE100AB8EE400A39
:1037A0008DED020A0698002800F03D81FFE707989A
:1037B0000090012808D0FFE70098022830D0FFE7EA
:1037C0000098032849D065E040F60040C4F202406A
:1037D0000068C0F3C10149F20000C0F2D030C84017
:1037E00003909DED030AB8EE400A9DED061AB8EE6F
:1037F000411A80EE010A9DED051AB8EE411A9DEDC1
:10380000022A9FED8F3A22EE032A31EE021AB7EE1A
:10381000002A31EE021A20EE010A8DED010A65E060
:103820009DED060AB8EE401A9FED860A80EE010A69
:103830009DED051AB8EE411A9DED022A9FED803AE2
:1038400022EE032A31EE021AB7EE002A31EE021AF6
:1038500020EE010A8DED010A48E09DED060AB8EE62
:10386000401A9FED760A80EE010A9DED051AB8EE2A
:10387000411A9DED022A9FED723A22EE032A31EEA3
:10388000021AB7EE002A31EE021A20EE010A8DED7F
:10389000010A2BE040F60040C4F202400068C0F389
:1038A000C10149F20000C0F2D030C84003909DED44
:1038B000030AB8EE400A9DED061AB8EE411A80EEF2
:1038C000010A9DED051AB8EE411A9DED022A9FED01
:1038D0005C3A22EE032A31EE021AB7EE002A31EEEC
:1038E000021A20EE010A8DED010AFFE740F60040C2
:1038F000C4F2024000680001002827D5FFE740F627
:103900002C40C4F202400068C003002819D5FFE72C
:103910009DED010A40F63C40C4F20240006880B2CE
:10392000400A01EE100AB8EE411AB7EE002A31EE55
:10393000021A80EE010A0898BCEEC00A80ED000A67
:1039400003E0089900200860FFE703E008990020E1
:103950000860FFE740F60040C4F202400068000142
:10396000002827D5FFE740F62C40C4F2024000684B
:103970008003002819D5FFE79DED010A40F63C4081
:10398000C4F202400068C0F3064001EE100AB8EE2F
:10399000411AB7EE002A31EE021A80EE010A0898A9
:1039A000BCEEC00A80ED010A03E0089900204860DF
:1039B000FFE703E0089900204860FFE740F6004079
:1039C000C4F2024000680001002827D5FFE740F656
:1039D0002C40C4F2024000684003002819D5FFE7DC
:1039E0009DED010A40F63C40C4F202400068C0F37D
:1039F000066001EE100AB8EE411AB7EE002A31EE69
:103A0000021A80EE010A0898BCEEC00A80ED020A94
:103A100003E0089900208860FFE703E00899002090
:103A20008860FFE707E0089900200860089948606F
:103A300008998860FFE709B0704700BF20BCBE4B03
:103A4000000000390024744A80B592B011911090A2
:103A50001098119980F00070084300285BD1FFE7AF
:103A600040F6F040C4F20240016801F44071079151
:103A700000688007002809D5FFE70798B0F5807F28
:103A800004D1FFE74FF40040099042E040F6F040D7
:103A9000C4F2024000680001002809D5FFE707983A
:103AA000B0F5007F04D1FFE74FF4FA4009902FE012
:103AB00040F60040C4F2024000688003002823D58D
:103AC000FFE70798B0F5407F1ED1FFE740F61C40A6
:103AD000C4F20240006800F47C50B0F5007F0FD3C0
:103AE000FFE740F61C40C4F202400068C0F3052125
:103AF00047F64000C0F27D10B0FBF1F0099002E003
:103B000000200990FFE702E000200990FFE7FFE7AF
:103B1000FFE700F08EBF109805901199069180F094
:103B200001000843002800F09B80FFE706990598F4
:103B300080F002000843002800F0FC80FFE70699AF
:103B4000059880F004000843002800F05D81FFE73D
:103B50000699059880F480500843002800F0C08141
:103B6000FFE70699059880F400500843002800F00C
:103B7000B782FFE70699059880F480400843002843
:103B800000F00083FFE70699059880F48030084331
:103B9000002800F04983FFE70699059880F400307B
:103BA0000843002800F0B983FFE70699059880F4E0
:103BB00080200843002800F05084FFE7069905980C
:103BC00080F400100843002800F0EF81FFE7069919
:103BD000059880F080600843002800F09286FFE797
:103BE0000699059880F000600843002800F00B85D6
:103BF000FFE70699059880F080500843002800F000
:103C00007A85FFE70699059880F000500843002860
:103C100000F0F885FFE70598069981F00401084354
:103C2000002800F0BA84FFE70598069981F010019A
:103C30000843002800F0BB86FFE70598069981F449
:103C400000710843002800F01C82FFE705980699E0
:103C500081F480510843002800F0238300F0E5BE82
:103C600040F6D840C4F20240006800F00700079018
:103C7000079820B9FFE701F0A5FE099058E040F64B
:103C80000040C4F202400068000100280AD5FFE7A6
:103C90000798012806D1FFE70AA8FFF759FD0B98FE
:103CA000099044E040F60040C4F2024000688007FA
:103CB000002812D5FFE7079803280ED1FFE740F64A
:103CC0000040C4F202400068C0F3C10149F20000A4
:103CD000C0F2D030C840099028E040F60040C4F25D
:103CE00002400068800500280AD5FFE707980428ED
:103CF00006D1FFE740F60010C0F23D00099014E045
:103D000040F6F040C4F2024000688007002808D561
:103D1000FFE70798052804D1FFE74FF4004009901A
:103D200002E000200990FFE7FFE7FFE7FFE7FFE77A
:103D300000F07EBE40F6D840C4F20240006800F0B9
:103D400038000790079820B9FFE701F027FE099097
:103D500058E040F60040C4F202400068000100282C
:103D60000AD5FFE70798082806D1FFE70AA8FFF75A
:103D7000EFFC0B98099044E040F60040C4F202408A
:103D800000688007002812D5FFE7079818280ED191
:103D9000FFE740F60040C4F202400068C0F3C101F2
:103DA00049F20000C0F2D030C840099028E040F647
:103DB0000040C4F202400068800500280AD5FFE7F1
:103DC0000798202806D1FFE740F60010C0F23D001A
:103DD000099014E040F6F040C4F202400068800709
:103DE000002808D5FFE70798282804D1FFE74FF4FB
:103DF0000040099002E000200990FFE7FFE7FFE79D
:103E0000FFE7FFE700F014BE40F6D840C4F20240DE
:103E1000006800F4E0700790079820B9FFE701F010
:103E2000BDFD09905AE040F60040C4F2024000682F
:103E3000000100280AD5FFE70798402806D1FFE7D0
:103E40000AA8FFF785FC0B98099046E040F6004071
:103E5000C4F2024000688007002812D5FFE70798E7
:103E6000C0280ED1FFE740F60040C4F202400068CF
:103E7000C0F3C10149F20000C0F2D030C84009903F
:103E80002AE040F60040C4F20240006880050028A5
:103E90000BD5FFE70798B0F5807F06D1FFE740F626
:103EA0000010C0F23D00099015E040F6F040C4F269
:103EB000024000688007002809D5FFE70798B0F5A1
:103EC000A07F04D1FFE74FF40040099002E00020FA
:103ED0000990FFE7FFE7FFE7FFE7FFE700F0A8BD76
:103EE00040F6E040C4F20240006800F0E060079055
:103EF000079820B9FFE701F079FD099053E0079892
:103F0000B0F1807F06D1FFE70AA8FFF721FC0B98EC
:103F1000099047E040F60040C4F202400068800784
:103F2000002813D5FFE70798B0F1407F0ED1FFE7D7
:103F300040F60040C4F202400068C0F3C10149F2FB
:103F40000000C0F2D030C84009902AE040F600409E
:103F5000C4F202400068800500280BD5FFE70798EF
:103F6000B0F1806F06D1FFE740F60010C0F23D00CF
:103F7000099015E040F6F040C4F202400068800766
:103F8000002809D5FFE70798B0F1A06F04D1FFE73B
:103F90004FF40040099002E000200990FFE7FFE79E
:103FA000FFE7FFE7FFE700F043BD40F6E840C4F25B
:103FB0000240006800F007000790079820B9FFE76B
:103FC00001F0D2FC09905AE00798012804D1FFE7DC
:103FD00001F020FD099051E00798022806D1FFE783
:103FE0000AA8FFF7B5FB0C98099046E040F60040A0
:103FF000C4F202400068800300280AD5FFE7079852
:10400000032806D1FFE747F64000C0F27D10099073
:1040100032E040F60040C4F2024000688007002809
:1040200012D5FFE7079804280ED1FFE740F60040BD
:10403000C4F202400068C0F3C10149F20000C0F2BE
:10404000D030C840099016E040F60040C4F202406B
:104050000068800500280AD5FFE70798052806D1E3
:10406000FFE740F60010C0F23D00099002E000209A
:104070000990FFE7FFE7FFE7FFE7FFE7FFE700F053
:10408000D7BC40F6E840C4F20240006800F00800E7
:10409000079040F6F040C4F2024000688007002814
:1040A00007D5FFE7079820B9FFE74FF400400990D4
:1040B00014E040F6F040C4F202400068000100281D
:1040C00008D5FFE70798082804D1FFE74FF4FA4026
:1040D000099002E000200990FFE7FFE700F0A8BC8C
:1040E00040F6E440C4F20240006800F4403007901B
:1040F000079820B9FFE701F051FC099040E00798CC
:10410000B0F5803F06D1FFE70AA8FFF721FB0C9826
:10411000099034E040F60040C4F202400068800795
:10412000002813D5FFE70798B0F5003F0ED1FFE751
:1041300040F60040C4F202400068C0F3C10149F2F9
:104140000000C0F2D030C840099017E040F60040AF
:10415000C4F202400068800500280BD5FFE70798ED
:10416000B0F5403F06D1FFE740F60010C0F23D0039
:10417000099002E000200990FFE7FFE7FFE7FFE773
:1041800000F056BC40F6E440C4F20240006800F47F
:1041900040200790079820B9FFE701F0FFFB099046
:1041A00040E00798B0F5802F06D1FFE70AA8FFF797
:1041B000CFFA0C98099034E040F60040C4F2024077
:1041C00000688007002813D5FFE70798B0F5002F97
:1041D0000ED1FFE740F60040C4F202400068C0F391
:1041E000C10149F20000C0F2D030C840099017E088
:1041F00040F60040C4F202400068800500280BD55C
:10420000FFE70798B0F5402F06D1FFE740F6001012
:10421000C0F23D00099002E000200990FFE7FFE7AF
:10422000FFE7FFE700F004BC40F6E440C4F20240C0
:10423000006800F040700790079820B9FFE701F090
:10424000ADFB09902BE00798B0F1807F06D1FFE726
:104250000AA8FFF77DFA0C9809901FE040F600408D
:10426000C4F2024000688007002813D5FFE70798D2
:10427000B0F1007F0ED1FFE740F60040C4F20240EB
:104280000068C0F3C10149F20000C0F2D030C8405C
:10429000099002E000200990FFE7FFE7FFE700F048
:1042A000C7BB40F6E440C4F20240006800F0406042
:1042B0000790079820B9FFE701F098FB09902BE0E1
:1042C0000798B0F1806F06D1FFE70AA8FFF740FA20
:1042D0000C9809901FE040F60040C4F202400068CC
:1042E0008007002813D5FFE70798B0F1006F0ED1C3
:1042F000FFE740F60040C4F202400068C0F3C1018D
:1043000049F20000C0F2D030C840099002E000201D
:104310000990FFE7FFE7FFE78AE340F6DC40C4F2DD
:104320000240006800F4E060079007980490A0B194
:10433000FFE70498B0F5807F13D0FFE70498B0F54D
:10434000407F14D0FFE70498B0F5806F20D0FFE7DE
:104350000498B0F5A06F2CD07BE001F047FB0990EA
:104360007AE00AA8FFF7F4F90A98099074E040F699
:10437000F040C4F2024000688007002804D5FFE73F
:104380004FF40040099002E000200990FFE763E04D
:1043900040F6F040C4F2024000680001002804D555
:1043A000FFE74FF4FA40099002E000200990FFE790
:1043B00052E040F6E840C4F20240006800F040409D
:1043C000089040F60040C4F20240006880070028D0
:1043D00011D5FFE7089870B9FFE740F60040C4F236
:1043E00002400068C0F3C10149F20000C0F2D030C1
:1043F000C84009902CE040F60040C4F2024000683A
:10440000800500280BD5FFE70898B0F1804F06D152
:10441000FFE740F60010C0F23D00099017E040F6BB
:104420000040C4F202400068800300280BD5FFE77B
:104430000898B0F1004F06D1FFE747F64000C0F200
:104440007D10099002E000200990FFE7FFE7FFE7F9
:1044500002E000200990FFE7EAE240F6DC40C4F207
:104460000240006800F4E040079007980390A0B174
:10447000FFE70398B0F5805F13D0FFE70398B0F52E
:10448000405F14D0FFE70398B0F5804F20D0FFE7DE
:104490000398B0F5A04F2CD07BE001F07FFA099093
:1044A0007AE00AA8FFF754F90A98099074E040F6F8
:1044B000F040C4F2024000688007002804D5FFE7FE
:1044C0004FF40040099002E000200990FFE763E00C
:1044D00040F6F040C4F2024000680001002804D514
:1044E000FFE74FF4FA40099002E000200990FFE74F
:1044F00052E040F6E840C4F20240006800F040405C
:10450000089040F60040C4F202400068800700288E
:1045100011D5FFE7089870B9FFE740F60040C4F2F4
:1045200002400068C0F3C10149F20000C0F2D0307F
:10453000C84009902CE040F60040C4F202400068F8
:10454000800500280BD5FFE70898B0F1804F06D111
:10455000FFE740F60010C0F23D00099017E040F67A
:104560000040C4F202400068800300280BD5FFE73A
:104570000898B0F1004F06D1FFE747F64000C0F2BF
:104580007D10099002E000200990FFE7FFE7FFE7B8
:1045900002E000200990FFE74AE240F6E840C4F25A
:1045A0000240006800F44070079040F60040C4F2FA
:1045B000024000688003002809D5FFE7079830B95A
:1045C000FFE747F64000C0F27D1009901AE0079817
:1045D000B0F5807F06D1FFE70DA8FEF73DFF0E98EE
:1045E00009900EE00798B0F5007F06D1FFE70AA812
:1045F000FFF7AEF80B98099002E000200990FFE762
:10460000FFE7FFE714E240F6E040C4F20240006832
:1046100000F00700079007980290042867D80299D5
:10462000DFE801F00309650F15000DA8FEF714FF80
:104630000E9809905EE00AA8FFF78AF80A98099098
:1046400058E048F20000C0F2BB00099052E040F68A
:10465000E840C4F20240006800F04040089040F694
:104660000040C4F2024000688007002811D5FFE72F
:10467000089870B9FFE740F60040C4F202400068B5
:10468000C0F3C10149F20000C0F2D030C840099027
:104690002CE040F60040C4F202400068800500288B
:1046A0000BD5FFE70898B0F1804F06D1FFE740F641
:1046B0000010C0F23D00099017E040F60040C4F23F
:1046C00002400068800300280BD5FFE70898B0F18E
:1046D000004F06D1FFE747F64000C0F27D10099079
:1046E00002E000200990FFE7FFE7FFE702E000207B
:1046F0000990FFE79CE140F6E040C4F20240006808
:1047000000F03800079007980190202800F276808A
:104710000199DFE801F01173737373737373177387
:1047200073737373737373737373737373731D73AF
:1047300073737373737323000DA8FEF78DFE0E98C9
:1047400009905EE00AA8FFF703F80A98099058E07C
:1047500048F20000C0F2BB00099052E040F6E84089
:10476000C4F20240006800F04040089040F600406B
:10477000C4F2024000688007002811D5FFE70898BE
:1047800070B9FFE740F60040C4F202400068C0F391
:10479000C10149F20000C0F2D030C84009902CE0BD
:1047A00040F60040C4F202400068800500280BD5A6
:1047B000FFE70898B0F1804F06D1FFE740F6001000
:1047C000C0F23D00099017E040F60040C4F20240FC
:1047D0000068800300280BD5FFE70898B0F1004F70
:1047E00006D1FFE747F64000C0F27D10099002E0D5
:1047F00000200990FFE7FFE7FFE702E000200990B3
:10480000FFE715E140F6E040C4F20240006800F422
:10481000E07007900798009068B1FFE70098402883
:104820000FD0FFE70098C02811D0FFE70098B0F53F
:10483000807F12D061E00DA8FEF70EFE0E98099061
:104840005EE00AA8FEF784FF0A98099058E048F253
:104850000000C0F2BB00099052E040F6E840C4F20C
:104860000240006800F04040089040F60040C4F26A
:10487000024000688007002811D5FFE7089870B94A
:10488000FFE740F60040C4F202400068C0F3C101F7
:1048900049F20000C0F2D030C84009902CE040F648
:1048A0000040C4F202400068800500280BD5FFE7F5
:1048B0000898B0F1804F06D1FFE740F60010C0F233
:1048C0003D00099017E040F60040C4F20240006845
:1048D000800300280BD5FFE70898B0F1004F06D100
:1048E000FFE747F64000C0F27D10099002E000208B
:1048F0000990FFE7FFE7FFE702E000200990FFE7EC
:1049000096E040F6E840C4F20240006800F0300053
:10491000079040F60040C4F202400068800400287E
:1049200009D5FFE7079830B9FFE746F60040C0F227
:10493000DC2009903AE040F60040C4F202400068F2
:10494000800100280AD5FFE70798102806D1FFE765
:104950000DA8FEF781FD0E98099026E040F6F04084
:10496000C4F2024000688007002808D5FFE70798D6
:10497000202804D1FFE74FF40040099014E040F6EE
:10498000F040C4F2024000680001002808D5FFE7AB
:104990000798302804D1FFE74FF4FA40099002E06D
:1049A00000200990FFE7FFE7FFE7FFE740E040F660
:1049B000E440C4F20240006800F03000079007981D
:1049C000102806D1FFE70DA8FEF746FD0E980990C6
:1049D0002EE040F60040C4F20240006800010028CA
:1049E0000AD5FFE70798202806D1FFE70AA8FEF7B7
:1049F000AFFE0B98099016E040F60040C4F202406A
:104A00000068800400280AD5FFE70798302806D1FF
:104A1000FFE746F60040C0F2DC20099002E00020EB
:104A20000990FFE7FFE7FFE702E000200990FFE7BA
:104A3000FFE7099812B080BD80B596B015900020B0
:104A40008DF84B008DF84A001598C078C00760B10A
:104A5000FFE740F6E841C4F20241086820F0404018
:104A6000159A126B10430860FFE715980068C0079D
:104A700080B3FFE71598406B1190052810D8119965
:104A8000DFE801F003040E0B0C0D0DE01598083063
:104A900006F074FD8DF84B0006E005E004E003E04D
:104AA00001208DF84B00FFE79DF84B0060B9FFE750
:104AB00040F6D841C4F20241086820F00700159A78
:104AC000526B1043086004E09DF84B008DF84A00DB
:104AD000FFE7FFE7159800788007002840F1438042
:104AE000FFE71598806B1090282822D81099DFE8EE
:104AF00001F015202020202020201620202020201A
:104B0000202020202020202020201D2020202020A8
:104B100020201E202020202020201F000DE015989E
:104B2000083006F02BFD8DF84B0006E005E004E0B0
:104B300003E001208DF84B00FFE79DF84B0060B9C2
:104B4000FFE740F6D841C4F20241086820F038007F
:104B5000159A926B1043086004E09DF84B008DF8A5
:104B60004A00FFE7FFE715980078400700283CD58A
:104B7000FFE71598C06B0F9090B1FFE70F984028A2
:104B80000FD0FFE70F98C02812D0FFE70F98B0F5BD
:104B9000807F0ED0FFE70F98B0F5A07F0AD00AE023
:104BA0000DE01598083006F0E9FC8DF84B0006E0A2
:104BB00005E004E003E001208DF84B00FFE79DF8DD
:104BC0004B0060B9FFE740F6D841C4F202410868E3
:104BD00020F4E070159AD26B1043086004E09DF851
:104BE0004B008DF84A00FFE7FFE715984078C006B4
:104BF00000283ED5FFE71598006C0E90A0B1FFE7A6
:104C00000E98B0F1807F10D0FFE70E98B0F1407F92
:104C100012D0FFE70E98B0F1806F0ED0FFE70E982C
:104C2000B0F1A06F0AD00AE00DE01598083006F048
:104C3000A5FC8DF84B0006E005E004E003E0012050
:104C40008DF84B00FFE79DF84B0060B9FFE740F699
:104C5000E041C4F20241086820F0E060159A126C4D
:104C60001043086004E09DF84B008DF84A00FFE710
:104C7000FFE7159840788006002838D5FFE715989B
:104C8000406C0D9078B1FFE70D98B0F5803F0BD0E8
:104C9000FFE70D98B0F5003F0DD0FFE70D98B0F598
:104CA000403F09D009E00CE01598083006F066FC9A
:104CB0008DF84B0005E004E003E001208DF84B0087
:104CC000FFE79DF84B0060B9FFE740F6E441C4F20E
:104CD0000241086820F44030159A526C1043086075
:104CE00004E09DF84B008DF84A00FFE7FFE71598B8
:104CF00040784006002838D5FFE71598806C0C9066
:104D000078B1FFE70C98B0F5802F0BD0FFE70C9837
:104D1000B0F5002F0DD0FFE70C98B0F5402F09D06B
:104D200009E00CE01598083006F028FC8DF84B00DF
:104D300005E004E003E001208DF84B00FFE79DF85B
:104D40004B0060B9FFE740F6E441C4F20241086855
:104D500020F44020159A926C1043086004E09DF8FE
:104D60004B008DF84A00FFE7FFE715988078C007F1
:104D700090B3FFE71598C06C0B9050B1FFE70B980C
:104D8000B0F1807F06D0FFE70B98B0F1007F08D02C
:104D900008E00BE01598083006F0F0FB8DF84B00AA
:104DA00004E003E001208DF84B00FFE79DF84B0085
:104DB00060B9FFE740F6E441C4F20241086820F020
:104DC0004070159AD26C1043086004E09DF84B00C7
:104DD0008DF84A00FFE7FFE715984079C0060028E4
:104DE00032D5FFE71598006D0A9050B1FFE70A9899
:104DF000B0F1806F06D0FFE70A98B0F1006F08D0DD
:104E000008E00BE01598083006F0B8FB8DF84B0071
:104E100004E003E001208DF84B00FFE79DF84B0014
:104E200060B9FFE740F6E441C4F20241086820F0AF
:104E30004060159A126D1043086004E09DF84B0025
:104E40008DF84A00FFE7FFE7159840790007002832
:104E500011D5FFE7FFE740F61C41C4F202410868A4
:104E600020F4004008601598D0F8802008681043AE
:104E70000860FFE7FFE715988078800700283ED597
:104E8000FFE71598406D0990A0B1FFE70998B0F5CC
:104E9000807F10D0FFE70998B0F5407F12D0FFE780
:104EA0000998B0F5806F0ED0FFE70998B0F5A06FB4
:104EB0000AD00AE00DE01598083006F05FFB8DF887
:104EC0004B0006E005E004E003E001208DF84B0014
:104ED000FFE79DF84B0060B9FFE740F6DC41C4F204
:104EE0000241086820F4E060159A526D1043086092
:104EF00004E09DF84B008DF84A00FFE7FFE71598A6
:104F00008078400700283ED5FFE71598806D08900F
:104F1000A0B1FFE70898B0F5805F10D0FFE70898D0
:104F2000B0F5405F12D0FFE70898B0F5804F0ED083
:104F3000FFE70898B0F5A04F0AD00AE00DE01598F9
:104F4000083006F01BFB8DF84B0006E005E004E09E
:104F500003E001208DF84B00FFE79DF84B0060B99E
:104F6000FFE740F6DC41C4F20241086820F4E0406B
:104F7000159A926D1043086004E09DF84B008DF87F
:104F80004A00FFE7FFE7159880788006002832D5B1
:104F9000FFE71598406E0790022809D3FFE70798AE
:104FA000022806D0FFE707980338032808D308E053
:104FB0000BE01598083006F0E1FA8DF84B0004E09C
:104FC00003E001208DF84B00FFE79DF84B0060B92E
:104FD000FFE740F6E841C4F20241086820F007000C
:104FE000159A526E1043086004E09DF84B008DF84E
:104FF0004A00FFE7FFE7159840798007002825D58C
:10500000FFE71598806E069020B1FFE70698082804
:1050100001D001E004E003E001208DF84B00FFE740
:105020009DF84B0060B9FFE740F6E841C4F2024149
:10503000086820F00800159A926E1043086004E09A
:105040009DF84B008DF84A00FFE7FFE71598C07800
:105050008007002840F1B180FFE740F62401C4F248
:105060000241086840F001000860FDF78FFC1390D2
:10507000FFE740F62400C4F202400068C00760B9B0
:10508000FFE7FDF783FC1399401A032804D3FFE7D9
:1050900003208DF84B0000E0EBE79DF84B00002863
:1050A00040F08580FFE740F6F040C4F2024000681F
:1050B00000F4407014901498C8B1FFE71498159943
:1050C000896F884213D0FFE740F6F041C4F20241F5
:1050D000086820F440701490086840F4803008603C
:1050E000086820F48030086014980860FFE79DF895
:1050F0005000C007E0B1FFE7FDF748FC1390FFE761
:1051000040F6F040C4F202400068800700280ED448
:10511000FFE7FDF73BFC1399401A41F289318842C1
:1051200004D3FFE703208DF84B0000E0E8E7FFE73A
:105130009DF84B00A8BBFFE7FFE71598806F00F4D0
:105140004070B0F5407F12D1FFE740F61C41C4F239
:105150000241086820F47C50159A926F4FF6F04394
:10516000C0F6FF731A4040EA1210086008E040F6EB
:105170001C41C4F20241086820F47C500860FFE73B
:1051800040F6F041C4F20241086820F44070086023
:105190001598826F6FF31F32086810430860FFE7AD
:1051A00004E09DF84B008DF84A00FFE704E09DF80D
:1051B0004B008DF84A00FFE7FFE71598C0784007DD
:1051C000002837D5FFE71598006E059060B1FFE71E
:1051D0000598102809D0FFE7059820280ED0FFE792
:1051E000059830280BD00BE00EE040F62841C4F2C1
:1051F0000241086840F40030086005E004E003E084
:1052000001208DF84B00FFE79DF84B0060B9FFE7E8
:1052100040F6E841C4F20241086820F03000159AD7
:10522000126E1043086004E09DF84B008DF84A00B0
:10523000FFE7FFE71598C0780007002837D5FFE79C
:105240001598C06E0490042817D80499DFE801F07F
:10525000030C1513140040F62841C4F202410868FB
:1052600040F4003008600CE01598083006F086F92C
:105270008DF84B0005E004E003E001208DF84B00C1
:10528000FFE79DF84B0060B9FFE740F6E041C4F24C
:105290000241086820F00700159AD26E104308609A
:1052A00004E09DF84B008DF84A00FFE7FFE71598F2
:1052B000C078C006002845D5FFE71598006F039019
:1052C000202825D80399DFE801F011232323232385
:1052D00023231A23232323232323232323232323A7
:1052E00023232123232323232323220040F62841A1
:1052F000C4F20241086840F4003008600CE01598E0
:10530000083006F03BF98DF84B0005E004E003E0BF
:1053100001208DF84B00FFE79DF84B0060B9FFE7D7
:1053200040F6E041C4F20241086820F03800159AC6
:10533000126F1043086004E09DF84B008DF84A009E
:10534000FFE7FFE71598C078800600283ED5FFE705
:105350001598406F029068B1FFE70298402812D07C
:10536000FFE70298C02815D0FFE70298B0F5807FCC
:1053700011D011E040F62841C4F20241086840F41F
:10538000003008600CE01598083006F0F7F88DF84A
:105390004B0005E004E003E001208DF84B00FFE73F
:1053A0009DF84B0060B9FFE740F6E041C4F20241CE
:1053B000086820F4E070159A526F1043086004E00A
:1053C0009DF84B008DF84A00FFE7FFE7159800793C
:1053D000400700283AD5FFE71598C06D019050B1FD
:1053E000FFE70198B0F5807F06D0FFE70198B0F5A0
:1053F000007F0AD010E013E040F62841C4F20241D9
:10540000086840F4003008600AE01598083006F09B
:10541000B5F88DF84B0003E001208DF84B00FFE755
:105420009DF84B0060B9FFE740F6E841C4F2024145
:10543000086820F44070159AD26D1043086004E0AB
:105440009DF84B008DF84A00FFE7FFE715980079BB
:10545000C006002839D5FFE71598C06F00901028C6
:1054600008D0FFE7009820280DD0FFE700983028EB
:1054700010D010E040F62841C4F20241086840F420
:10548000003008600BE01598083006F077F88DF8CA
:105490004B0004E003E001208DF84B00FFE79DF88E
:1054A0004B0060B9FFE740F6E441C4F202410868EE
:1054B00020F03000159AD26F1043086004E09DF888
:1054C0004B008DF84A00FFE7FFE79DF84A0016B051
:1054D00080BD000080B586B004900391049820B987
:1054E000FFE701208DF817003AE2039842F200012D
:1054F000C4F20201096801F00F01884216D9FFE7E2
:1055000042F20000C4F20200016821F00F01039A88
:1055100011430160006800F00F000399884204D035
:10552000FFE701208DF817001AE2FFE704980078E2
:10553000C00600281BD5FFE70498406940F62041CB
:10554000C4F20241096801F4E041B0EB112F0DD91A
:10555000FFE740F62041C4F20241086820F4E04031
:10556000049A526940EA02200860FFE7FFE70498C6
:105570000078000700281BD5FFE70498006940F673
:105580002041C4F20241096801F4E061B0EB111F4F
:105590000DD9FFE740F62041C4F20241086820F42B
:1055A000E060049A126940EA02100860FFE7FFE732
:1055B000049800784007002819D5FFE70498C068D0
:1055C00040F62041C4F20241096801F070018842AE
:1055D0000CD9FFE740F62041C4F20241086820F0F0
:1055E0007000049AD26810430860FFE7FFE7049850
:1055F00000788007002819D5FFE70498806840F6F6
:105600002041C4F20241096801F00F0188420CD91F
:10561000FFE740F62041C4F20241086820F00F0085
:10562000049A926810430860FFE7FFE70498007847
:10563000C007002800F0D180FFE7049840680328E5
:105640000ED1FFE740F60040C4F20240006880013E
:10565000002804D4FFE701208DF8170080E135E031
:105660000498406802280ED1FFE740F60040C4F2DB
:10567000024000688003002804D4FFE701208DF871
:1056800017006DE121E00498406801280ED1FFE782
:1056900040F60040C4F2024000688005002804D4AF
:1056A000FFE701208DF817005AE10DE040F60040B9
:1056B000C4F2024000688007002804D4FFE70120FC
:1056C0008DF817004CE1FFE7FFE7FFE740F61C41CC
:1056D000C4F20241086820F00300049A52681043A3
:1056E0000860FDF753F901900498406803281AD127
:1056F000FFE7FFE740F61C40C4F20240006800F0FC
:10570000180018280ED0FFE7FDF740F90199401A5C
:1057100041F28931884204D3FFE703208DF8170056
:105720001EE1E7E758E00498406802281AD1FFE735
:10573000FFE740F61C40C4F20240006800F0180089
:1057400010280ED0FFE7FDF721F90199401A41F228
:105750008931884204D3FFE703208DF81700FFE06A
:10576000E7E738E00498406801281AD1FFE7FFE72F
:1057700040F61C40C4F20240006800F018000828FF
:105780000ED0FFE7FDF702F90199401A41F2893185
:10579000884204D3FFE703208DF81700E0E0E7E735
:1057A00018E0FFE740F61C40C4F20240006810F029
:1057B000180F0ED0FFE7FDF7E9F80199401A41F202
:1057C0008931884204D3FFE703208DF81700C7E032
:1057D000E8E7FFE7FFE7FFE7FFE7049800788007C7
:1057E000002819D5FFE70498806840F62041C4F2EC
:1057F0000241096801F00F0188420CD2FFE740F630
:105800002041C4F20241086820F00F00049A926817
:1058100010430860FFE7FFE7039842F20001C4F27B
:105820000201096801F00F01884216D2FFE742F237
:105830000000C4F20200016821F00F01039A114335
:105840000160006800F00F000399884204D0FFE770
:1058500001208DF8170083E0FFE7049800784007E7
:10586000002819D5FFE70498C06840F62041C4F22B
:105870000241096801F0700188420CD2FFE740F64E
:105880002041C4F20241086820F07000049AD268F6
:1058900010430860FFE7FFE704980078000700283E
:1058A0001BD5FFE70498006940F62041C4F202418D
:1058B000096801F4E061B0EB111F0DD2FFE740F67B
:1058C0002041C4F20241086820F4E060049A1269A1
:1058D00040EA02100860FFE7FFE704980078C0067E
:1058E00000281BD5FFE70498406940F62041C4F228
:1058F0000241096801F4E041B0EB112F0DD2FFE73E
:1059000040F62041C4F20241086820F4E040049AC5
:10591000526940EA02200860FFE7FFE700F07AF8EA
:1059200040F62041C4F20241096801F00F024FF233
:105930008871C0F60001895CC84040F20001C2F2E3
:105940000001086040F28C10C2F200000068FDF710
:10595000C1FC8DF80B009DF80B008DF81700FFE7D8
:105960009DF8170006B080BD80B500F053F840F6F2
:105970002041C4F20241096801F00F024FF2887120
:10598000C0F60001895C01F01F0120FA01F140F22C
:105990000000C2F200000160006880BD80B5FFF722
:1059A000E3FF40F62041C4F202410968C1F302124C
:1059B0004FF29871C0F60001895C01F01F01C840E8
:1059C00080BD000080B5FFF7CFFF40F62041C4F254
:1059D00002410968C1F302224FF29871C0F600013A
:1059E000895C01F01F01C84080BD000080B5FFF751
:1059F000BBFF40F62041C4F202410968C1F3023204
:105A00004FF29871C0F60001895C01F01F01C84097
:105A100080BD000089B040F61C40C4F2024000681E
:105A200000F01800082806D1FFE740F60010C0F289
:105A30003D00049048E140F61C40C4F2024000687A
:105A400010F0180F21D1FFE740F60040C4F20240E9
:105A5000006800F020010020B0EB511F0ED0FFE7DE
:105A600040F60040C4F202400068C0F3C10149F2B0
:105A70000000C0F2D030C840049005E049F20000B8
:105A8000C0F2D0300490FFE71DE140F61C40C4F2A4
:105A90000240006800F01800102806D1FFE747F622
:105AA0004000C0F27D1004900CE140F61C40C4F2AE
:105AB0000240006800F01800182840F0FC80FFE762
:105AC00040F62840C4F20240016801F00301089149
:105AD0000168C1F3052106910068C0F3001005902C
