:020000040800F2
:10000000480700206D020008F16F0008955C0008A9
:1000100025670008890300086D89000800000000BA
:1000200000000000000000000000000071730008E4
:100030008D0300080000000061700008757300085F
:1000400089020008890200088902000800000000F7
:1000500089020008890200088902000800000000E7
:1000600089020008890200080000000089020008D7
:100070008902000889020008890200088902000834
:100080008902000889020008890200088902000824
:100090008902000889020008890200088902000814
:1000A0008902000889020008890200088902000804
:1000B00089020008890200088902000889020008F4
:1000C00089020008890200088902000889020008E4
:1000D0000000000089020008890200088902000867
:1000E00089020008890200088902000889020008C4
:1000F0008902000889020008890200080000000047
:100100000000000089020008890200088902000836
:100110008902000889020008890200088902000893
:1001200089020008890200084D8900085D890008DD
:100130008902000800000000000000008902000899
:10014000890200080000000000000000000000001C
:10015000000000000000000089020008000000000C
:100160000000000000000000890200088902000869
:10017000000000000000000000000000000000007F
:10018000000000000000000000000000000000006F
:10019000000000000000000000000000000000005F
:1001A0000000000000000000890200088902000829
:1001B00089020008890200088902000889020008F3
:1001C0008902000889020008000000000000000009
:1001D000000000000000000000000000890200088C
:1001E000890200080000000000000000000000007C
:1001F00000000000000000000000000000000000FF
:1002000000000000890200088902000800000000C8
:10021000000000008902000800000000000000004B
:10022000000000000000000000000000890200083B
:10023000890200080000000000000000000000002B
:10024000000000000000000000000000890200081B
:100250008902000889020008DFF80CD000F07CF861
:10026000004800474D8C0008480700200748804799
:1002700007480047FEE7FEE7FEE7FEE7FEE7FEE78A
:10028000FEE7FEE7FEE7FEE7FEE700004D7400082C
:10029000590200082DE9F05F0546002092469B4672
:1002A00088460646814640241BE02846414647468C
:1002B000224600F041F853465A46C01A914110D3E5
:1002C00011461846224600F028F82D1A67EB01085F
:1002D0004F4622460120002100F01FF817EB0009CD
:1002E0004E41201EA4F10104DFDC484631462A4677
:1002F0004346BDE8F09FD2B201E000F8012B491E51
:10030000FBD270470022F6E710B513460A460446B2
:100310001946FFF7F0FF204610BD202A04DB203AE3
:1003200000FA02F1002070479140C2F1200320FA48
:1003300003F3194390407047202A04DB203A21FA46
:1003400002F00021704721FA02F3D040C2F12002EE
:1003500091400843194670471CB509480090094868
:1003600001900546009C06E0E06840F0010394E837
:10037000070098471034AC42F6D3FFF771FF000036
:10038000A8910008C8910008FFE7FEE77047000049
:1003900072B6FFE7FEE7000080B584B0029000F07F
:1003A000F9FA0190029820B9FFE701208DF80F00BB
:1003B00079E0029890F8540002280DD0FFE70299E6
:1003C00020208865FFE70299002081F84C00FFE7B4
:1003D00001208DF80F0066E002980168486940F03E
:1003E000040048610299052081F85400FFE7029853
:1003F000006800698004002827D4FFE700F0CAFAEB
:100400000199401A06281FD3FFE70299886D40F032
:10041000100088650299032081F85400029890F832
:1004200050000006002805D5FFE70298416F012023
:100430000873FFE7FFE70299002081F84C00FFE70F
:1004400001208DF80F002EE0D1E70298016848697D
:1004500040F0020048610299042081F8540002989B
:1004600001684FF4FE40C8600299012081F85400F1
:10047000029890F850000006002809D5FFE702987E
:10048000416F012008730298016800208864FFE72B
:10049000FFE70299002081F84C00FFE7FFE700200A
:1004A0008DF80F00FFE79DF80F0004B080BD00003D
:1004B00082B00090009820B9FFE701208DF8070076
:1004C0001CE0009890F85400022807D0FFE700993C
:1004D0002020886501208DF807000FE00099042096
:1004E00081F8540000980168486942F20402104300
:1004F0004861FFE700208DF80700FFE79DF807003F
:1005000002B0704780B584B0039000F043FA0290C7
:10051000039801900198013048B1FFE740F22E00A6
:10052000C2F200000178019808440190FFE7FFE75C
:1005300000F030FA0299401A0199884201D2FFE78F
:10054000F6E704B080BD000085B004900391002060
:100550000090FFE703980099C840002800F09980B8
:10056000FFE70398009A012191400840019001980B
:10057000002800F08A80FFE7009820F0030042F294
:100580006001C4F2024140580290009800F003005C
:10059000C1000F2000FA01F1029808400290029871
:1005A00004994FF60042CBF6FD521140890A009A99
:1005B00002F00302D2009140884233D1FFE7019A52
:1005C00042F28001C4F20241086890430860019A37
:1005D00042F28401C4F20241086890430860019A23
:1005E00042F20001C4F20241086890430860019A97
:1005F00042F20401C4F20241086890430860009886
:1006000000F00300C1000F2088400290029B009878
:1006100020F0030142F26002C4F20242885898437B
:100620008850FFE700984100032000FA01F3049A84
:10063000116819431160DDF800C00CF007018A0051
:100640000F2101FA02F304996FF0030202EA5C023F
:100650000A44116A994311620099490000FA01F3B2
:10066000049A916899439160009A012101FA02F37A
:10067000049A5168994351600099490000FA01F2C7
:100680000499C8689043C860FFE700980130009063
:1006900060E705B07047000085B00490039100202A
:1006A0000090FFE7039800680099C840002800F018
:1006B0005881FFE703980068009A012191400840A3
:1006C00001900198002800F04881FFE703984068F6
:1006D000022805D0FFE703984068122828D1FFE7D9
:1006E000049800996FF0030202EA51010844006A7D
:1006F0000290009800F0070081000F2000FA01F13D
:100700000298884302900398006900F00F00009956
:1007100001F00701890000FA01F1029808430290F4
:1007200002980499009B02EA530211440862FFE711
:1007300004980068029000984100032000FA01F13B
:100740000298884302900398406800F003000099E3
:10075000490000FA01F102980843029002980499B6
:1007600008600398406801280FD0FFE703984068AD
:1007700002280AD0FFE703984068112805D0FFE758
:100780000398406812282FD1FFE7049880680290F0
:1007900000984100032000FA01F10298884302907A
:1007A0000398C0680099490000FA01F102980843D3
:1007B0000290029804998860049840680290009919
:1007C000012000FA01F102988843029003984068E2
:1007D000C0F30010009900FA01F10298084302905A
:1007E000029804994860FFE703984068032818D0EE
:1007F000FFE70498C068029000984100032000FAC7
:1008000001F102988843029003988068009949009A
:1008100000FA01F102980843029002980499C86016
:10082000FFE70398C079C006002840F19580FFE7F4
:10083000009820F0030042F26002C4F202428058A5
:100840000290009800F00300C1000F2000FA01F1AF
:1008500002988843029004984FF60041CBF6FD5170
:100860000840800A009901F00301C90000FA01F173
:100870000298084302900298009921F003018850E1
:1008800042F20000C4F2024000680290019902980E
:100890008843029003988079C006002805D5FFE7B9
:1008A0000199029808430290FFE7029842F2000182
:1008B000C4F20241086042F20400C4F2024000683F
:1008C00002900199029888430290039880798006EB
:1008D000002805D5FFE70199029808430290FFE739
:1008E000029842F20401C4F20241086042F284001C
:1008F000C4F2024000680290019902988843029075
:10090000039880798007002805D5FFE701990298B0
:1009100008430290FFE7029842F28401C4F20241C8
:10092000086042F28000C4F202400068029001991F
:1009300002988843029003988079C00728B1FFE7A6
:100940000199029808430290FFE7029842F2800161
:10095000C4F202410860FFE7FFE700980130009011
:10096000A0E605B07047000082B00190ADF802101B
:100970008DF801209DF8010028B1FFE7BDF80200C5
:100980000199886104E0BDF8020001998862FFE7DF
:1009900002B0704740F24030C2F200000068704779
:1009A00083B001900091019890F8410020283BD13C
:1009B000FFE7FFE7019890F84000012804D1FFE726
:1009C00002208DF80B0033E00199012081F84000EE
:1009D000FFE7FFE70199242081F8410001980168B1
:1009E000086820F00100086001980168086820F498
:1009F00080500860009A01980168086810430860F8
:100A000001980168086840F0010008600199202001
:100A100081F84100FFE70199002081F84000FFE7DD
:100A200000208DF80B0003E002208DF80B00FFE79B
:100A30009DF80B0003B0704784B0029001910298BA
:100A400090F84100202840D1FFE7FFE7029890F896
:100A50004000012804D1FFE702208DF80F0038E0A4
:100A60000299012081F84000FFE7FFE70299242066
:100A700081F8410002980168086820F001000860D0
:100A80000298006800680090009820F47060009060
:100A90000199009840EA01200090009802990968A5
:100AA000086002980168086840F001000860029937
:100AB000202081F84100FFE70299002081F84000E2
:100AC000FFE700208DF80F0003E002208DF80F00F3
:100AD000FFE79DF80F0004B07047000080B582B0BA
:100AE0000090009820B9FFE701208DF807007BE017
:100AF000009890F8410040B9FFE70099002081F884
:100B00004000009800F0F4FAFFE70099242081F8F3
:100B1000410000980168086820F001000860009812
:100B20000168406820F0706008610098016888687A
:100B300020F4004088600098C068012807D1FFE7D2
:100B400000980168806840F40040886006E00098E2
:100B50000168806840F404408860FFE70098C0683E
:100B6000022807D1FFE700980168486840F4006058
:100B7000486006E000980168486820F4006048601A
:100B8000FFE700980168486848F20002C0F20022BE
:100B90001043486000980168C86820F40040C860AD
:100BA000009A1168106953699269184340EA02205B
:100BB000C860009A1168D069126A104308600098F2
:100BC0000168086840F0010008600099002048644E
:100BD000009A202182F8411000990863009981F859
:100BE00042008DF80700FFE79DF8070002B080BDC6
:100BF00010B588B084460C980B98DDF828E0CDF845
:100C000018C0ADF81610ADF81420ADF81230ADF8DC
:100C10001000069890F84100202840F02681FFE758
:100C20000A9820B1FFE7BDF8100040B9FFE7069928
:100C30004FF40070486401208DF81F0019E1FFE7B0
:100C4000069890F84000012804D1FFE702208DF8B3
:100C50001F000EE10699012081F84000FFE7FFE741
:100C6000FFF798FE0390069803996A4611604FF4C7
:100C700000410122192305F019FA20B1FFE70120F4
:100C80008DF81F00F5E00699222081F841000699B1
:100C9000402081F842000699002048640A99069A8B
:100CA0005162BDF81010069A51850699486306985E
:100CB000BDF81610BDF81420BDF81230DDF830C0B4
:100CC000039CEE46CEF80440CEF800C005F004F9CF
:100CD00050B1FFE7FFE70699002081F84000FFE7E9
:100CE00001208DF81F00C4E00698408DB0F5807F8C
:100CF00014D3FFE70699FF2008850698BDF8161063
:100D000090F82820EC4642F20043C8F20003CCF8E9
:100D100000304FF0807305F09FF914E00698408D85
:100D2000069908850698BDF8161090F82820EC461C
:100D300042F20043C8F20003CCF800304FF00073D9
:100D400005F08AF9FFE7FFE706980C9B03996A46CE
:100D500011600421002205F0A9F920B1FFE701206C
:100D60008DF81F0085E006980068406A0699496A78
:100D700008700699486A013048620699088D013862
:100D800008850699488D013848850698408DE8B356
:100D9000FFE70698008DC8BBFFE706980C9B0399F8
:100DA0006A4611608021002205F080F920B1FFE73A
:100DB00001208DF81F005CE00698408DB0F5807F23
:100DC00011D3FFE70699FF2008850698BDF8161095
:100DD00090F82820EC460023CCF800304FF08073C8
:100DE00005F03AF911E00698408D069908850698B5
:100DF000BDF8161090F82820EC460023CCF80030FF
:100E00004FF0007305F028F9FFE7FFE7FFE70698CA
:100E1000408D002898D1FFE706980C99039A05F0B9
:100E2000A7F920B1FFE701208DF81F0021E0069807
:100E300001682020C86106990A6851684EF60003CF
:100E4000CFF6006319405160069981F84100069978
:100E5000002081F84200FFE70699002081F8400059
:100E6000FFE700208DF81F0003E002208DF81F002F
:100E7000FFE79DF81F0008B010BD000010B588B056
:100E800084460C980B98DDF828E0CDF818C0ADF832
:100E90001610ADF81420ADF81230ADF81000069819
:100EA00090F84100202840F01B81FFE70A9820B10C
:100EB000FFE7BDF8100040B9FFE706994FF4007056
:100EC000486401208DF81F000EE1FFE7069890F8B6
:100ED0004000012804D1FFE702208DF81F0003E144
:100EE0000699012081F84000FFE7FFE7FFF752FD78
:100EF0000390069803996A4611604FF4004101225D
:100F0000192305F0D3F820B1FFE701208DF81F0069
:100F1000EAE00699212081F841000699402081F8F5
:100F200042000699002048640A99069A5162BDF869
:100F30001010069A5185069948630698BDF8161058
:100F4000BDF81420BDF81230DDF830C0039CEE4629
:100F5000CEF80440CEF800C005F01EF850B1FFE70F
:100F6000FFE70699002081F84000FFE701208DF897
:100F70001F00B9E00698408DB0F5807F11D3FFE7E0
:100F80000699FF2008850698BDF8161090F82820CD
:100F9000EC460023CCF800304FF0807305F05CF88D
:100FA00011E00698408D069908850698BDF8161040
:100FB00090F82820EC460023CCF800304FF0007366
:100FC00005F04AF8FFE7FFE706980C99039A05F049
:100FD00021F920B1FFE701208DF81F0084E0069879
:100FE0000168406A007888620699486A0130486260
:100FF0000699488D013848850699088D013808857D
:101000000698408DE8B3FFE70698008DC8BBFFE760
:1010100006980C9B03996A4611608021002205F016
:1010200045F820B1FFE701208DF81F005CE006982D
:10103000408DB0F5807F11D3FFE70699FF2008852A
:101040000698BDF8161090F82820EC460023CCF83E
:1010500000304FF0807304F0FFFF11E00698408DE0
:10106000069908850698BDF8161090F82820EC46D9
:101070000023CCF800304FF0007304F0EDFFFFE7E1
:10108000FFE7FFE70698408D00289DD1FFE706980F
:101090000C99039A05F06CF820B1FFE701208DF858
:1010A0001F0021E0069801682020C86106990A689F
:1010B00051684EF60003CFF600631940516006995F
:1010C00081F841000699002081F84200FFE7069967
:1010D000002081F84000FFE700208DF81F0003E0AA
:1010E00002208DF81F00FFE79DF81F0008B010BD1B
:1010F00080B5AAB0299000202890279026902590AE
:10110000249002A88821FFF7FDF82998006845F28D
:101110000041C4F2000188423DD1FFE70020039066
:101120004FF400510291139002A801F051FC18B144
:10113000FFE7FFF72DF9FFE7FFE740F68C40C4F229
:101140000240016841F002010160006800F0020005
:1011500001900198FFE7C0202490122025900020E4
:10116000269027900420289040F20040C4F20220EC
:1011700024A9FFF791FAFFE740F69C40C4F2024031
:10118000016841F400110160006800F40010009053
:101190000098FFE7FFE72AB080BD000082B0019011
:1011A00000208DF8030040F20040C4F20300006804
:1011B000C00720B1FFE701208DF803000AE040F2EC
:1011C0000041C4F20301086820F00400019A1043B2
:1011D0000860FFE79DF8030002B0704740F200414D
:1011E000C4F20301086840F0010008600020704765
:1011F00040F22E00C2F20000027840F24031C2F20A
:1012000000010868104408607047000080B582B093
:10121000032000F0E3F802F0C9FB40F62041C4F2DD
:101220000241096801F00F0249F26811C0F600019D
:10123000895CC84040F20001C2F20001086004204D
:1012400003F052FB0F2000F011F820B1FFE701205E
:101250008DF8070005E000F093F800208DF80700F6
:10126000FFE79DF8070002B080BD000080B586B0A2
:1012700004900020039040F22E00C2F2000000789B
:1012800020B9FFE701208DF8170075E04EF210003D
:10129000CEF2000000684007002812D5FFE740F2B8
:1012A0000000C2F20000006840F22E01C2F200010C
:1012B0000A784FF47A71B1FBF2F1B0FBF1F00390D0
:1012C00040E003F00FFC02900298019040B1FFE76C
:1012D0000198012816D0FFE70198022821D02FE0BD
:1012E00040F20000C2F20000006840F22E01C2F29B
:1012F00000010A784FF4FA51B1FBF2F1B0FBF1F0C2
:1013000003901EE040F22E00C2F2000001784FF47C
:101310007A70B0FBF1F14FF4FA40B0FBF1F00390BA
:101320000FE040F22E00C2F2000001784FF47A7014
:10133000B0FBF1F14FF40040B0FBF1F0039000E09E
:10134000FFE7FFE7039803F0A7FB20B1FFE70120C9
:101350008DF8170010E004994FF0FF300022009242
:1013600000F024F80098049940F23002C2F2000222
:1013700011608DF81700FFE79DF8170006B080BDDB
:101380007047000080B582B0ADF80600BDF90600D8
:1013900007F0EEFA02B080BD80B582B0ADF806006D
:1013A000BDF9060007F000FB02B080BD80B586B035
:1013B000ADF816000491039207F00EFB0290BDF900
:1013C0001600019002980499039A05F013FE014655
:1013D000019807F009FB06B080BD000080B582B01F
:1013E0000190019807F022FB02B080BD07F03CFBA2
:1013F00089B0089040F63440C4F2024000686FF3B0
:101400005F20059040F62840C4F20240016801F0D8
:10141000030107910168C1F305210691006800F0FE
:1014200010000490049840F63841C4F20241096863
:1014300089B2C90800FB01F000EE100AB8EE400ABC
:101440008DED020A0698002800F03D81FFE707981D
:101450000090012808D0FFE70098022830D0FFE76D
:101460000098032849D065E040F60040C4F20240ED
:101470000068C0F3C10149F20000C0F2D030C8409A
:1014800003909DED030AB8EE400A9DED061AB8EEF2
:10149000411A80EE010A9DED051AB8EE411A9DED44
:1014A000022A9FED8F3A22EE032A31EE021AB7EE9E
:1014B000002A31EE021A20EE010A8DED010A65E0E4
:1014C0009DED060AB8EE401A9FED860A80EE010AED
:1014D0009DED051AB8EE411A9DED022A9FED803A66
:1014E00022EE032A31EE021AB7EE002A31EE021A7A
:1014F00020EE010A8DED010A48E09DED060AB8EEE6
:10150000401A9FED760A80EE010A9DED051AB8EEAD
:10151000411A9DED022A9FED723A22EE032A31EE26
:10152000021AB7EE002A31EE021A20EE010A8DED02
:10153000010A2BE040F60040C4F202400068C0F30C
:10154000C10149F20000C0F2D030C84003909DEDC7
:10155000030AB8EE400A9DED061AB8EE411A80EE75
:10156000010A9DED051AB8EE411A9DED022A9FED84
:101570005C3A22EE032A31EE021AB7EE002A31EE6F
:10158000021A20EE010A8DED010AFFE740F6004045
:10159000C4F2024000688001002827D5FFE740F62A
:1015A0002840C4F202400068C003002819D5FFE7B4
:1015B0009DED010A40F63440C4F20240006880B25A
:1015C000400A01EE100AB8EE411AB7EE002A31EED9
:1015D000021A80EE010A0898BCEEC00A80ED000AEB
:1015E00003E0089900200860FFE703E00899002065
:1015F0000860FFE740F60040C4F202400068800146
:10160000002827D5FFE740F62840C4F202400068D2
:101610008003002819D5FFE79DED010A40F634400C
:10162000C4F202400068C0F3064001EE100AB8EEB2
:10163000411AB7EE002A31EE021A80EE010A08982C
:10164000BCEEC00A80ED010A03E008990020486062
:10165000FFE703E0089900204860FFE740F60040FC
:10166000C4F2024000688001002827D5FFE740F659
:101670002840C4F2024000684003002819D5FFE763
:101680009DED010A40F63440C4F202400068C0F308
:10169000066001EE100AB8EE411AB7EE002A31EEEC
:1016A000021A80EE010A0898BCEEC00A80ED020A18
:1016B00003E0089900208860FFE703E00899002014
:1016C0008860FFE707E008990020086008994860F3
:1016D00008998860FFE709B0704700BF20BCBE4B87
:1016E000000000390024744A89B0089040F63C405C
:1016F000C4F2024000686FF35F20059040F62C4072
:10170000C4F20240016801F0030107910168C1F3CE
:1017100005210691006800F010000490049840F63E
:101720004041C4F20241096889B2C90800FB01F0D6
:1017300000EE100AB8EE400A8DED020A0698002865
:1017400000F03D81FFE707980090012808D0FFE7EF
:101750000098022830D0FFE70098032849D065E0C0
:1017600040F60040C4F202400068C0F3C10149F2F3
:101770000000C0F2D030C84003909DED030AB8EEDF
:10178000400A9DED061AB8EE411A80EE010A9DED61
:10179000051AB8EE411A9DED022A9FED8F3A22EE0E
:1017A000032A31EE021AB7EE002A31EE021A20EEB9
:1017B000010A8DED010A65E09DED060AB8EE401ABA
:1017C0009FED860A80EE010A9DED051AB8EE411ADA
:1017D0009DED022A9FED803A22EE032A31EE021A95
:1017E000B7EE002A31EE021A20EE010A8DED010A51
:1017F00048E09DED060AB8EE401A9FED760A80EEAD
:10180000010A9DED051AB8EE411A9DED022A9FEDE1
:10181000723A22EE032A31EE021AB7EE002A31EEB6
:10182000021A20EE010A8DED010A2BE040F600407D
:10183000C4F202400068C0F3C10149F20000C0F2E6
:10184000D030C84003909DED030AB8EE400A9DEDEC
:10185000061AB8EE411A80EE010A9DED051AB8EE9F
:10186000411A9DED022A9FED5C3A22EE032A31EEE9
:10187000021AB7EE002A31EE021A20EE010A8DEDAF
:10188000010AFFE740F60040C4F202400068000190
:10189000002827D5FFE740F62C40C4F2024000683C
:1018A000C003002819D5FFE79DED010A40F63C4032
:1018B000C4F20240006880B2400A01EE100AB8EE9D
:1018C000411AB7EE002A31EE021A80EE010A08989A
:1018D000BCEEC00A80ED000A03E008990020086011
:1018E000FFE703E0089900200860FFE740F60040AA
:1018F000C4F2024000680001002827D5FFE740F647
:101900002C40C4F2024000688003002819D5FFE78C
:101910009DED010A40F63C40C4F202400068C0F36D
:10192000064001EE100AB8EE411AB7EE002A31EE79
:10193000021A80EE010A0898BCEEC00A80ED010A86
:1019400003E0089900204860FFE703E008990020C1
:101950004860FFE740F60040C4F202400068000122
:10196000002827D5FFE740F62C40C4F2024000686B
:101970004003002819D5FFE79DED010A40F63C40E1
:10198000C4F202400068C0F3066001EE100AB8EE2F
:10199000411AB7EE002A31EE021A80EE010A0898C9
:1019A000BCEEC00A80ED020A03E0089900208860BE
:1019B000FFE703E0089900208860FFE707E0089947
:1019C000002008600899486008998860FFE709B01E
:1019D000704700BF20BCBE4B000000390024744A91
:1019E00080B592B0119110901098119980F000700C
:1019F000084300285BD1FFE740F6F040C4F2024004
:101A0000016801F44071079100688007002809D53A
:101A1000FFE70798B0F5807F04D1FFE74FF400405F
:101A2000099042E040F6F040C4F202400068000134
:101A3000002809D5FFE70798B0F5007F04D1FFE73C
:101A40004FF4FA4009902FE040F60040C4F2024003
:101A500000688003002823D5FFE70798B0F5407F92
:101A60001ED1FFE740F61C40C4F20240006800F4BB
:101A70007C50B0F5007F0FD3FFE740F61C40C4F266
:101A800002400068C0F3052147F64000C0F27D1017
:101A9000B0FBF1F0099002E000200990FFE702E0BE
:101AA00000200990FFE7FFE7FFE700F08EBF1098E6
:101AB00005901199069180F001000843002800F07C
:101AC0009B80FFE70699059880F0020008430028F4
:101AD00000F0FC80FFE70699059880F004000843B9
:101AE000002800F05D81FFE70699059880F480509A
:101AF0000843002800F0C081FFE70699059880F4AC
:101B000000500843002800F0B782FFE706990598C7
:101B100080F480400843002800F00083FFE7069926
:101B2000059880F480300843002800F04983FFE7DF
:101B30000699059880F400300843002800F0B98326
:101B4000FFE70699059880F480200843002800F0FC
:101B50005084FFE70699059880F400100843002898
:101B600000F0EF81FFE70699059880F08060084358
:101B7000002800F09286FFE70699059880F0006043
:101B80000843002800F00B85FFE70699059880F0D0
:101B900080500843002800F07A85FFE706990598F1
:101BA00080F000500843002800F0F885FFE7059812
:101BB000069981F004010843002800F0BA84FFE789
:101BC0000598069981F010010843002800F0BB86B3
:101BD000FFE70598069981F400710843002800F09A
:101BE0001C82FFE70598069981F48051084300287C
:101BF00000F0238300F0E5BE40F6D840C4F2024076
:101C0000006800F007000790079820B9FFE701F08F
:101C1000A5FE099058E040F60040C4F2024000687A
:101C2000000100280AD5FFE70798012806D1FFE741
:101C30000AA8FFF759FD0B98099044E040F60040D0
:101C4000C4F2024000688007002812D5FFE7079819
:101C500003280ED1FFE740F60040C4F202400068BE
:101C6000C0F3C10149F20000C0F2D030C840099071
:101C700028E040F60040C4F20240006880050028D9
:101C80000AD5FFE70798042806D1FFE740F60010C1
:101C9000C0F23D00099014E040F6F040C4F202406A
:101CA00000688007002808D5FFE70798052804D1B9
:101CB000FFE74FF40040099002E000200990FFE7A1
:101CC000FFE7FFE7FFE7FFE700F07EBE40F6D84002
:101CD000C4F20240006800F038000790079820B96D
:101CE000FFE701F027FE099058E040F60040C4F2FB
:101CF00002400068000100280AD5FFE7079808287D
:101D000006D1FFE70AA8FFF7EFFC0B98099044E023
:101D100040F60040C4F2024000688007002812D557
:101D2000FFE7079818280ED1FFE740F60040C4F2FD
:101D300002400068C0F3C10149F20000C0F2D03097
:101D4000C840099028E040F60040C4F20240006814
:101D5000800500280AD5FFE70798202806D1FFE76D
:101D600040F60010C0F23D00099014E040F6F0404B
:101D7000C4F2024000688007002808D5FFE70798F2
:101D8000282804D1FFE74FF40040099002E000202A
:101D90000990FFE7FFE7FFE7FFE7FFE700F014BE6A
:101DA00040F6D840C4F20240006800F4E0700790AA
:101DB000079820B9FFE701F0BDFD09905AE040F611
:101DC0000040C4F202400068000100280AD5FFE785
:101DD0000798402806D1FFE70AA8FFF785FC0B9873
:101DE000099046E040F60040C4F2024000688007D7
:101DF000002812D5FFE70798C0280ED1FFE740F66C
:101E00000040C4F202400068C0F3C10149F2000082
:101E1000C0F2D030C84009902AE040F60040C4F239
:101E200002400068800500280BD5FFE70798B0F551
:101E3000807F06D1FFE740F60010C0F23D00099018
:101E400015E040F6F040C4F2024000688007002828
:101E500009D5FFE70798B0F5A07F04D1FFE74FF45D
:101E60000040099002E000200990FFE7FFE7FFE74C
:101E7000FFE7FFE700F0A8BD40F6E040C4F20240F3
:101E8000006800F0E0600790079820B9FFE701F0D4
:101E900079FD099053E00798B0F1807F06D1FFE704
:101EA0000AA8FFF721FC0B98099047E040F6004094
:101EB000C4F2024000688007002813D5FFE70798A6
:101EC000B0F1407F0ED1FFE740F60040C4F202407F
:101ED0000068C0F3C10149F20000C0F2D030C84030
:101EE00009902AE040F60040C4F2024000688005F4
:101EF00000280BD5FFE70798B0F1806F06D1FFE708
:101F000040F60010C0F23D00099015E040F6F040A8
:101F1000C4F2024000688007002809D5FFE707984F
:101F2000B0F1A06F04D1FFE74FF40040099002E048
:101F300000200990FFE7FFE7FFE7FFE7FFE700F07A
:101F400043BD40F6E840C4F20240006800F00700DC
:101F50000790079820B9FFE701F0D2FC09905AE0FA
:101F60000798012804D1FFE701F020FD099051E016
:101F70000798022806D1FFE70AA8FFF7B5FB0C98DF
:101F8000099046E040F60040C4F202400068800339
:101F900000280AD5FFE70798032806D1FFE747F690
:101FA0004000C0F27D10099032E040F60040C4F2DB
:101FB000024000688007002812D5FFE70798042830
:101FC0000ED1FFE740F60040C4F202400068C0F3C3
:101FD000C10149F20000C0F2D030C840099016E0BB
:101FE00040F60040C4F202400068800500280AD58F
:101FF000FFE70798052806D1FFE740F60010C0F27A
:102000003D00099002E000200990FFE7FFE7FFE7AD
:10201000FFE7FFE7FFE700F0D7BC40F6E840C4F277
:102020000240006800F00800079040F6F040C4F25B
:10203000024000688007002807D5FFE7079820B90D
:10204000FFE74FF40040099014E040F6F040C4F27E
:10205000024000680001002808D5FFE7079808281B
:1020600004D1FFE74FF4FA40099002E00020099004
:10207000FFE7FFE700F0A8BC40F6E440C4F20240EE
:10208000006800F440300790079820B9FFE701F09E
:1020900051FC099040E00798B0F5803F06D1FFE77A
:1020A0000AA8FFF721FB0C98099034E040F60040A5
:1020B000C4F2024000688007002813D5FFE70798A4
:1020C000B0F5003F0ED1FFE740F60040C4F20240F9
:1020D0000068C0F3C10149F20000C0F2D030C8402E
:1020E000099017E040F60040C4F202400068800505
:1020F00000280BD5FFE70798B0F5403F06D1FFE772
:1021000040F60010C0F23D00099002E00020099066
:10211000FFE7FFE7FFE7FFE700F056BC40F6E440CB
:10212000C4F20240006800F440200790079820B9EC
:10213000FFE701F0FFFB099040E00798B0F5802F22
:1021400006D1FFE70AA8FFF7CFFA0C98099034E010
:1021500040F60040C4F2024000688007002813D512
:10216000FFE70798B0F5002F0ED1FFE740F60040DB
:10217000C4F202400068C0F3C10149F20000C0F29D
:10218000D030C840099017E040F60040C4F2024049
:102190000068800500280BD5FFE70798B0F5402FB1
:1021A00006D1FFE740F60010C0F23D00099002E0C2
:1021B00000200990FFE7FFE7FFE7FFE700F004BC1E
:1021C00040F6E440C4F20240006800F0407007901E
:1021D000079820B9FFE701F0ADFB09902BE00798C5
:1021E000B0F1807F06D1FFE70AA8FFF77DFA0C98CF
:1021F00009901FE040F60040C4F2024000688007EA
:10220000002813D5FFE70798B0F1007F0ED1FFE754
:1022100040F60040C4F202400068C0F3C10149F238
:102220000000C0F2D030C840099002E000200990C0
:10223000FFE7FFE7FFE700F0C7BB40F6E440C4F26A
:102240000240006800F040600790079820B9FFE75F
:1022500001F098FB09902BE00798B0F1806F06D150
:10226000FFE70AA8FFF740FA0C9809901FE040F634
:102270000040C4F2024000688007002813D5FFE741
:102280000798B0F1006F0ED1FFE740F60040C4F2AE
:1022900002400068C0F3C10149F20000C0F2D03032
:1022A000C840099002E000200990FFE7FFE7FFE740
:1022B0008AE340F6DC40C4F20240006800F4E060CB
:1022C000079007980490A0B1FFE70498B0F5807FCD
:1022D00013D0FFE70498B0F5407F14D0FFE70498CF
:1022E000B0F5806F20D0FFE70498B0F5A06F2CD038
:1022F0007BE001F047FB09907AE00AA8FFF7F4F9C8
:102300000A98099074E040F6F040C4F20240006878
:102310008007002804D5FFE74FF40040099002E051
:1023200000200990FFE763E040F6F040C4F202406D
:1023300000680001002804D5FFE74FF4FA40099037
:1023400002E000200990FFE752E040F6E840C4F2C6
:102350000240006800F04040089040F60040C4F29F
:10236000024000688007002811D5FFE7089870B97F
:10237000FFE740F60040C4F202400068C0F3C1012C
:1023800049F20000C0F2D030C84009902CE040F67D
:102390000040C4F202400068800500280BD5FFE72A
:1023A0000898B0F1804F06D1FFE740F60010C0F268
:1023B0003D00099017E040F60040C4F2024000687A
:1023C000800300280BD5FFE70898B0F1004F06D135
:1023D000FFE747F64000C0F27D10099002E00020C0
:1023E0000990FFE7FFE7FFE702E000200990FFE721
:1023F000EAE240F6DC40C4F20240006800F4E0404B
:10240000079007980390A0B1FFE70398B0F5805FAD
:1024100013D0FFE70398B0F5405F14D0FFE70398AF
:10242000B0F5804F20D0FFE70398B0F5A04F2CD037
:102430007BE001F07FFA09907AE00AA8FFF754F9EF
:102440000A98099074E040F6F040C4F20240006837
:102450008007002804D5FFE74FF40040099002E010
:1024600000200990FFE763E040F6F040C4F202402C
:1024700000680001002804D5FFE74FF4FA400990F6
:1024800002E000200990FFE752E040F6E840C4F285
:102490000240006800F04040089040F60040C4F25E
:1024A000024000688007002811D5FFE7089870B93E
:1024B000FFE740F60040C4F202400068C0F3C101EB
:1024C00049F20000C0F2D030C84009902CE040F63C
:1024D0000040C4F202400068800500280BD5FFE7E9
:1024E0000898B0F1804F06D1FFE740F60010C0F227
:1024F0003D00099017E040F60040C4F20240006839
:10250000800300280BD5FFE70898B0F1004F06D1F3
:10251000FFE747F64000C0F27D10099002E000207E
:102520000990FFE7FFE7FFE702E000200990FFE7DF
:102530004AE240F6E840C4F20240006800F440700D
:10254000079040F60040C4F2024000688003002873
:1025500009D5FFE7079830B9FFE747F64000C0F21A
:102560007D1009901AE00798B0F5807F06D1FFE74B
:102570000DA8FEF73DFF0E9809900EE00798B0F504
:10258000007F06D1FFE70AA8FFF7AEF80B98099085
:1025900002E000200990FFE7FFE7FFE714E240F6C2
:1025A000E040C4F20240006800F00700079007987E
:1025B0000290042867D80299DFE801F00309650F4B
:1025C00015000DA8FEF714FF0E9809905EE00AA80A
:1025D000FFF78AF80A98099058E048F20000C0F224
:1025E000BB00099052E040F6E840C4F202400068A7
:1025F00000F04040089040F60040C4F202400068FD
:102600008007002811D5FFE7089870B9FFE740F66A
:102610000040C4F202400068C0F3C10149F200006A
:10262000C0F2D030C84009902CE040F60040C4F21F
:1026300002400068800500280BD5FFE70898B0F13C
:10264000804F06D1FFE740F60010C0F23D00099030
:1026500017E040F60040C4F2024000688003002802
:102660000BD5FFE70898B0F1004F06D1FFE747F61A
:102670004000C0F27D10099002E000200990FFE7C1
:10268000FFE7FFE702E000200990FFE79CE140F64A
:10269000E040C4F20240006800F03800079007985C
:1026A0000190202800F276800199DFE801F0117393
:1026B0007373737373731773737373737373737346
:1026C0007373737373731D737373737373732300F3
:1026D0000DA8FEF78DFE0E9809905EE00AA8FFF7A0
:1026E00003F80A98099058E048F20000C0F2BB00D5
:1026F000099052E040F6E840C4F20240006800F061
:102700004040089040F60040C4F202400068800754
:10271000002811D5FFE7089870B9FFE740F60040A0
:10272000C4F202400068C0F3C10149F20000C0F2E7
:10273000D030C84009902CE040F60040C4F202407E
:102740000068800500280BD5FFE70898B0F1804F9E
:1027500006D1FFE740F60010C0F23D00099017E0F7
:1027600040F60040C4F202400068800300280BD508
:10277000FFE70898B0F1004F06D1FFE747F64000A9
:10278000C0F27D10099002E000200990FFE7FFE70A
:10279000FFE702E000200990FFE715E140F6E04086
:1027A000C4F20240006800F4E070079007980090BF
:1027B00068B1FFE7009840280FD0FFE70098C028D5
:1027C00011D0FFE70098B0F5807F12D061E00DA82E
:1027D000FEF70EFE0E9809905EE00AA8FEF784FF51
:1027E0000A98099058E048F20000C0F2BB00099036
:1027F00052E040F6E840C4F20240006800F0404079
:10280000089040F60040C4F20240006880070028AB
:1028100011D5FFE7089870B9FFE740F60040C4F211
:1028200002400068C0F3C10149F20000C0F2D0309C
:10283000C84009902CE040F60040C4F20240006815
:10284000800500280BD5FFE70898B0F1804F06D12E
:10285000FFE740F60010C0F23D00099017E040F697
:102860000040C4F202400068800300280BD5FFE757
:102870000898B0F1004F06D1FFE747F64000C0F2DC
:102880007D10099002E000200990FFE7FFE7FFE7D5
:1028900002E000200990FFE796E040F6E840C4F22D
:1028A0000240006800F03000079040F60040C4F29B
:1028B000024000688004002809D5FFE7079830B976
:1028C000FFE746F60040C0F2DC2009903AE040F60F
:1028D0000040C4F202400068800100280AD5FFE7EA
:1028E0000798102806D1FFE70DA8FEF781FD0E9886
:1028F000099026E040F6F040C4F2024000688007EC
:10290000002808D5FFE70798202804D1FFE74FF4F7
:102910000040099014E040F6F040C4F20240006824
:102920000001002808D5FFE70798302804D1FFE709
:102930004FF4FA40099002E000200990FFE7FFE71A
:10294000FFE7FFE740E040F6E440C4F202400068E1
:1029500000F0300007900798102806D1FFE70DA877
:10296000FEF746FD0E9809902EE040F60040C4F2B6
:1029700002400068000100280AD5FFE707982028D8
:1029800006D1FFE70AA8FEF7AFFE0B98099016E004
:1029900040F60040C4F202400068800400280AD5D6
:1029A000FFE70798302806D1FFE746F60040C0F25F
:1029B000DC20099002E000200990FFE7FFE7FFE735
:1029C00002E000200990FFE7FFE7099812B080BD00
:1029D00080B596B0159000208DF84B008DF84A0018
:1029E0001598C078C00760B1FFE740F6E841C4F22F
:1029F0000241086820F04040159A126B10430860AD
:102A0000FFE715980068C00780B3FFE71598406B93
:102A10001190052810D81199DFE801F003040E0B7E
:102A20000C0D0DE01598083004F054FB8DF84B00A8
:102A300006E005E004E003E001208DF84B00FFE72D
:102A40009DF84B0060B9FFE740F6D841C4F202415F
:102A5000086820F00700159A526B1043086004E0E4
:102A60009DF84B008DF84A00FFE7FFE715980078C6
:102A70008007002840F14380FFE71598806B109095
:102A8000282822D81099DFE801F0152020202020E6
:102A90002020162020202020202020202020202040
:102AA00020201D202020202020201E20202020202B
:102AB00020201F000DE01598083004F00BFB8DF866
:102AC0004B0006E005E004E003E001208DF84B0038
:102AD000FFE79DF84B0060B9FFE740F6D841C4F22C
:102AE0000241086820F03800159A926B1043086084
:102AF00004E09DF84B008DF84A00FFE7FFE71598CA
:102B00000078400700283CD5FFE71598C06B0F9070
:102B100090B1FFE70F9840280FD0FFE70F98C0282B
:102B200012D0FFE70F98B0F5807F0ED0FFE70F9827
:102B3000B0F5A07F0AD00AE00DE01598083004F047
:102B4000C9FA8DF84B0006E005E004E003E001203F
:102B50008DF84B00FFE79DF84B0060B9FFE740F6AA
:102B6000D841C4F20241086820F4E070159AD26B93
:102B70001043086004E09DF84B008DF84A00FFE721
:102B8000FFE715984078C00600283ED5FFE7159866
:102B9000006C0E90A0B1FFE70E98B0F1807F10D0CE
:102BA000FFE70E98B0F1407F12D0FFE70E98B0F12A
:102BB000806F0ED0FFE70E98B0F1A06F0AD00AE048
:102BC0000DE01598083004F085FA8DF84B0006E00A
:102BD00005E004E003E001208DF84B00FFE79DF8DD
:102BE0004B0060B9FFE740F6E041C4F202410868DB
:102BF00020F0E060159A126C1043086004E09DF824
:102C00004B008DF84A00FFE7FFE7159840788006F3
:102C1000002838D5FFE71598406C0D9078B1FFE794
:102C20000D98B0F5803F0BD0FFE70D98B0F5003F51
:102C30000DD0FFE70D98B0F5403F09D009E00CE05A
:102C40001598083004F046FA8DF84B0005E004E0D2
:102C500003E001208DF84B00FFE79DF84B0060B9C1
:102C6000FFE740F6E441C4F20241086820F4403036
:102C7000159A526C1043086004E09DF84B008DF8E3
:102C80004A00FFE7FFE7159840784006002838D54E
:102C9000FFE71598806C0C9078B1FFE70C98B0F5C1
:102CA000802F0BD0FFE70C98B0F5002F0DD0FFE779
:102CB0000C98B0F5402F09D009E00CE015980830C9
:102CC00004F008FA8DF84B0005E004E003E0012071
:102CD0008DF84B00FFE79DF84B0060B9FFE740F629
:102CE000E441C4F20241086820F44020159A926C35
:102CF0001043086004E09DF84B008DF84A00FFE7A0
:102D0000FFE715988078C00790B3FFE71598C06C6F
:102D10000B9050B1FFE70B98B0F1807F06D0FFE732
:102D20000B98B0F1007F08D008E00BE01598083050
:102D300004F0D0F98DF84B0004E003E001208DF899
:102D40004B00FFE79DF84B0060B9FFE740F6E44118
:102D5000C4F20241086820F04070159AD26C10430A
:102D6000086004E09DF84B008DF84A00FFE7FFE79C
:102D700015984079C006002832D5FFE71598006DF8
:102D80000A9050B1FFE70A98B0F1806F06D0FFE7D4
:102D90000A98B0F1006F08D008E00BE015980830F1
:102DA00004F098F98DF84B0004E003E001208DF861
:102DB0004B00FFE79DF84B0060B9FFE740F6E441A8
:102DC000C4F20241086820F04060159A126D104369
:102DD000086004E09DF84B008DF84A00FFE7FFE72C
:102DE000159840790007002811D5FFE7FFE740F666
:102DF0001C41C4F20241086820F4004008601598A4
:102E0000D0F88020086810430860FFE7FFE71598B6
:102E10008078800700283ED5FFE71598406D09901F
:102E2000A0B1FFE70998B0F5807F10D0FFE70998BF
:102E3000B0F5407F12D0FFE70998B0F5806F0ED053
:102E4000FFE70998B0F5A06F0AD00AE00DE01598E9
:102E5000083004F03FF98DF84B0006E005E004E08F
:102E600003E001208DF84B00FFE79DF84B0060B9AF
:102E7000FFE740F6DC41C4F20241086820F4E0605C
:102E8000159A526D1043086004E09DF84B008DF8D0
:102E90004A00FFE7FFE715988078400700283ED5F5
:102EA000FFE71598806D0890A0B1FFE70898B0F58E
:102EB000805F10D0FFE70898B0F5405F12D0FFE7C1
:102EC0000898B0F5804F0ED0FFE70898B0F5A04FF6
:102ED0000AD00AE00DE01598083004F0FBF88DF8F0
:102EE0004B0006E005E004E003E001208DF84B0014
:102EF000FFE79DF84B0060B9FFE740F6DC41C4F204
:102F00000241086820F4E040159A926D1043086071
:102F100004E09DF84B008DF84A00FFE7FFE71598A5
:102F200080788006002832D5FFE71598406E07901C
:102F3000022809D3FFE70798022806D0FFE7079881
:102F40000338032808D308E00BE01598083004F094
:102F5000C1F88DF84B0004E003E001208DF84B0030
:102F6000FFE79DF84B0060B9FFE740F6E841C4F287
:102F70000241086820F00700159A526E104308605D
:102F800004E09DF84B008DF84A00FFE7FFE7159835
:102F900040798007002825D5FFE71598806E0690B8
:102FA00020B1FFE70698082801D001E004E003E023
:102FB00001208DF84B00FFE79DF84B0060B9FFE75B
:102FC00040F6E841C4F20241086820F00800159A72
:102FD000926E1043086004E09DF84B008DF84A00A3
:102FE000FFE7FFE71598C0788007002840F1B1801F
:102FF000FFE740F62401C4F20241086840F00100F6
:103000000860FDF7C7FC1390FFE740F62400C4F208
:1030100002400068C00760B9FFE7FDF7BBFC1399E9
:10302000401A032804D3FFE703208DF84B0000E08B
:10303000EBE79DF84B00002840F08580FFE740F665
:10304000F040C4F20240006800F4407014901498FC
:10305000C8B1FFE714981599896F884213D0FFE72C
:1030600040F6F041C4F20241086820F44070149028
:10307000086840F480300860086820F480300860F8
:1030800014980860FFE79DF85000C007E0B1FFE723
:10309000FDF780FC1390FFE740F6F040C4F20240D9
:1030A0000068800700280ED4FFE7FDF773FC139932
:1030B000401A41F28931884204D3FFE703208DF89A
:1030C0004B0000E0E8E7FFE79DF84B00A8BBFFE7F7
:1030D000FFE71598806F00F44070B0F5407F12D183
:1030E000FFE740F61C41C4F20241086820F47C501E
:1030F000159A926F4FF6F043C0F6FF731A4040EAFC
:103100001210086008E040F61C41C4F20241086851
:1031100020F47C500860FFE740F6F041C4F2024121
:10312000086820F4407008601598826F6FF31F32B2
:10313000086810430860FFE704E09DF84B008DF835
:103140004A00FFE704E09DF84B008DF84A00FFE7D6
:10315000FFE71598C0784007002837D5FFE7159896
:10316000006E059060B1FFE70598102809D0FFE7D1
:10317000059820280ED0FFE7059830280BD00BE0EB
:103180000EE040F62841C4F20241086840F40030E5
:10319000086005E004E003E001208DF84B00FFE744
:1031A0009DF84B0060B9FFE740F6E841C4F20241E8
:1031B000086820F03000159A126E1043086004E091
:1031C0009DF84B008DF84A00FFE7FFE71598C0789F
:1031D0000007002837D5FFE71598C06E0490042833
:1031E00017D80499DFE801F0030C1513140040F61A
:1031F0002841C4F20241086840F4003008600CE045
:103200001598083003F066FF8DF84B0005E004E0E8
:1032100003E001208DF84B00FFE79DF84B0060B9FB
:10322000FFE740F6E041C4F20241086820F00700E1
:10323000159AD26E1043086004E09DF84B008DF89B
:103240004A00FFE7FFE71598C078C006002845D57B
:10325000FFE71598006F0390202825D80399DFE831
:1032600001F011232323232323231A23232323239E
:103270002323232323232323232321232323232320
:103280002323220040F62841C4F20241086840F49A
:10329000003008600CE01598083003F01BFF8DF833
:1032A0004B0005E004E003E001208DF84B00FFE750
:1032B0009DF84B0060B9FFE740F6E041C4F20241DF
:1032C000086820F03800159A126F1043086004E077
:1032D0009DF84B008DF84A00FFE7FFE71598C0788E
:1032E000800600283ED5FFE71598406F029068B130
:1032F000FFE70298402812D0FFE70298C02815D0B7
:10330000FFE70298B0F5807F11D011E040F6284128
:10331000C4F20241086840F4003008600CE01598DF
:10332000083003F0D7FE8DF84B0005E004E003E021
:1033300001208DF84B00FFE79DF84B0060B9FFE7D7
:1033400040F6E041C4F20241086820F4E070159AAA
:10335000526F1043086004E09DF84B008DF84A005E
:10336000FFE7FFE715980079400700283AD5FFE707
:103370001598C06D019050B1FFE70198B0F5807FBE
:1033800006D0FFE70198B0F5007F0AD010E013E007
:1033900040F62841C4F20241086840F40030086059
:1033A0000AE01598083003F095FE8DF84B0003E015
:1033B00001208DF84B00FFE79DF84B0060B9FFE757
:1033C00040F6E841C4F20241086820F44070159AC2
:1033D000D26D1043086004E09DF84B008DF84A0060
:1033E000FFE7FFE715980079C006002839D5FFE709
:1033F0001598C06F0090102808D0FFE7009820288B
:103400000DD0FFE70098302810D010E040F628419A
:10341000C4F20241086840F4003008600BE01598DF
:10342000083003F057FE8DF84B0004E003E0012064
:103430008DF84B00FFE79DF84B0060B9FFE740F6C1
:10344000E441C4F20241086820F03000159AD26FBE
:103450001043086004E09DF84B008DF84A00FFE738
:10346000FFE79DF84A0016B080BD000080B586B029
:1034700004900391049820B9FFE701208DF817000C
:103480003AE2039842F20001C4F20201096801F035
:103490000F01884216D9FFE742F20000C4F2020091
:1034A000016821F00F01039A11430160006800F0E8
:1034B0000F000399884204D0FFE701208DF8170020
:1034C0001AE2FFE704980078C00600281BD5FFE742
:1034D0000498406940F62041C4F20241096801F4B1
:1034E000E041B0EB112F0DD9FFE740F62041C4F2C7
:1034F0000241086820F4E040049A526940EA022040
:103500000860FFE7FFE704980078000700281BD554
:10351000FFE70498006940F62041C4F202410968BF
:1035200001F4E061B0EB111F0DD9FFE740F6204137
:10353000C4F20241086820F4E060049A126940EA8B
:1035400002100860FFE7FFE70498007840070028B2
:1035500019D5FFE70498C06840F62041C4F2024143
:10356000096801F0700188420CD9FFE740F620415C
:10357000C4F20241086820F07000049AD268104337
:103580000860FFE7FFE7049800788007002819D556
:10359000FFE70498806840F62041C4F202410968C0
:1035A00001F00F0188420CD9FFE740F62041C4F238
:1035B0000241086820F00F00049A926810430860E6
:1035C000FFE7FFE704980078C007002800F0D180EB
:1035D000FFE70498406803280ED1FFE740F600405B
:1035E000C4F2024000688001002804D4FFE70120F3
:1035F0008DF8170080E135E00498406802280ED16C
:10360000FFE740F60040C4F2024000688003002853
:1036100004D4FFE701208DF817006DE121E0049844
:10362000406801280ED1FFE740F60040C4F2024096
:1036300000688005002804D4FFE701208DF81700FA
:103640005AE10DE040F60040C4F2024000688007F5
:10365000002804D4FFE701208DF817004CE1FFE7B4
:10366000FFE7FFE740F61C41C4F20241086820F082
:103670000300049A526810430860FDF78BF901902B
:103680000498406803281AD1FFE7FFE740F61C4082
:10369000C4F20240006800F0180018280ED0FFE7BE
:1036A000FDF778F90199401A41F28931884204D333
:1036B000FFE703208DF817001EE1E7E758E00498C4
:1036C000406802281AD1FFE7FFE740F61C40C4F229
:1036D0000240006800F0180010280ED0FFE7FDF748
:1036E00059F90199401A41F28931884204D3FFE720
:1036F00003208DF81700FFE0E7E738E00498406802
:1037000001281AD1FFE7FFE740F61C40C4F202404F
:10371000006800F0180008280ED0FFE7FDF73AF91E
:103720000199401A41F28931884204D3FFE703200E
:103730008DF81700E0E0E7E718E0FFE740F61C40EF
:10374000C4F20240006810F0180F0ED0FFE7FDF73A
:1037500021F90199401A41F28931884204D3FFE7E7
:1037600003208DF81700C7E0E8E7FFE7FFE7FFE772
:10377000FFE7049800788007002819D5FFE7049830
:10378000806840F62041C4F20241096801F00F014F
:1037900088420CD2FFE740F62041C4F2024108689B
:1037A00020F00F00049A926810430860FFE7FFE7DB
:1037B000039842F20001C4F20201096801F00F010E
:1037C000884216D2FFE742F20000C4F2020001680C
:1037D00021F00F01039A11430160006800F00F000F
:1037E0000399884204D0FFE701208DF8170083E099
:1037F000FFE7049800784007002819D5FFE70498F0
:10380000C06840F62041C4F20241096801F070012D
:1038100088420CD2FFE740F62041C4F2024108681A
:1038200020F07000049AD26810430860FFE7FFE7B9
:1038300004980078000700281BD5FFE7049800696A
:1038400040F62041C4F20241096801F4E061B0EBA6
:10385000111F0DD2FFE740F62041C4F20241086873
:1038600020F4E060049A126940EA02100860FFE761
:10387000FFE704980078C00600281BD5FFE70498EE
:10388000406940F62041C4F20241096801F4E04178
:10389000B0EB112F0DD2FFE740F62041C4F20241F8
:1038A000086820F4E040049A526940EA0220086067
:1038B000FFE7FFE700F07AF840F62041C4F202414A
:1038C000096801F00F0249F26811C0F60001895C35
:1038D000C84040F20001C2F20001086040F230002E
:1038E000C2F200000068FDF7C1FC8DF80B009DF8E6
:1038F0000B008DF81700FFE79DF8170006B080BD9C
:1039000080B500F053F840F62041C4F20241096846
:1039100001F00F0249F26811C0F60001895C01F064
:103920001F0120FA01F140F20000C2F20000016024
:10393000006880BD80B5FFF7E3FF40F62041C4F288
:1039400002410968C1F3021249F27811C0F6000180
:10395000895C01F01F01C84080BD000080B5FFF701
:10396000CFFF40F62041C4F202410968C1F30222B0
:1039700049F27811C0F60001895C01F01F01C840CE
:1039800080BD000080B5FFF7BBFF40F62041C4F2C8
:1039900002410968C1F3023249F27811C0F6000110
:1039A000895C01F01F01C84080BD000089B040F66D
:1039B0001C40C4F20240006800F01800082806D13C
:1039C000FFE740F60010C0F23D00049048E140F6E9
:1039D0001C40C4F20240006810F0180F21D1FFE72C
:1039E00040F60040C4F20240006800F020010020D0
:1039F000B0EB511F0ED0FFE740F60040C4F202408A
:103A00000068C0F3C10149F20000C0F2D030C840E4
:103A1000049005E049F20000C0F2D0300490FFE7C6
:103A20001DE140F61C40C4F20240006800F018009E
:103A3000102806D1FFE747F64000C0F27D10049041
:103A40000CE140F61C40C4F20240006800F018008F
:103A5000182840F0FC80FFE740F62840C4F20240FE
:103A6000016801F0030108910168C1F30521069185
:103A70000068C0F300100590059840F63841C4F284
:103A80000241096889B2C90800FB01F000EE100A82
:103A9000B8EE400A8DED020A0698002800F0D380A7
:103AA000FFE708980090012809D0FFE70098022856
:103AB00000F08D80FFE70098032864D088E040F68E
:103AC0000040C4F20240006800F020010020B0EB8A
:103AD000511F33D0FFE740F60040C4F202400068B7
:103AE000C0F3C10149F20000C0F2D030C8400390D9
:103AF0009DED030AB8EE400A9DED061AB8EE411A94
:103B000080EE010A40F63440C4F2024000686FF3D0
:103B10005F2001EE100AB8EE411A9DED022A9FEDDA
:103B2000533A22EE032A31EE021AB7EE002A31EEA2
:103B3000021A20EE010A8DED010A23E09DED060A2E
:103B4000B8EE401A9FED4A0A80EE010A40F6344072
:103B5000C4F2024000686FF35F2001EE100AB8EE75
:103B6000411A9DED022A9FED413A22EE032A31EEE1
:103B7000021AB7EE002A31EE021A20EE010A8DED8C
:103B8000010AFFE748E09DED060AB8EE401A9FEDF6
:103B9000360A80EE010A40F63440C4F20240006862
:103BA0006FF35F2001EE100AB8EE411A9DED022A74
:103BB0009FED2E3A22EE032A31EE021AB7EE002ACA
:103BC00031EE021A20EE010A8DED010A24E0FFE732
:103BD0009DED060AB8EE401A9FED260A80EE010A16
:103BE00040F63440C4F2024000686FF35F2001EEFB
:103BF000100AB8EE411A9DED022A9FED1C3A22EE02
:103C0000032A31EE021AB7EE002A31EE021A20EE34
:103C1000010A8DED010AFFE740F63440C4F202408C
:103C2000006881B2012000EB512007909DED010A50
:103C30009DED071AB8EE411A80EE010ABCEEC00AEB
:103C40008DED040A02E000200490FFE705E049F250
:103C50000000C0F2D0300490FFE7FFE7FFE7FFE786
:103C6000049809B0704700BF20BCBE4B000000396B
:103C70000024744C0024744A80B588B006900698DD
:103C800028B9FFE701208DF81F0000F0EFBC40F6D7
:103C90001C40C4F20240006800F01800049040F696
:103CA0002840C4F20240006800F003000390069828
:103CB0000078C006002840F18080FFE704980828BB
:103CC00008D0FFE7049818281DD1FFE703980228C1
:103CD00019D1FFE70698C06928B9FFE701208DF8E0
:103CE0001F0000F0C3BCFFE740F61841C4F20241D8
:103CF000086820F47C10069A126A40EA02400860C4
:103D0000FFE7FFE758E00698C06988B3FFE740F691
:103D10000041C4F20241086840F480700860FCF77A
:103D200039FE0590FFE740F60040C4F2024000680B
:103D3000800500280DD4FFE7FCF72CFE0599401AFA
:103D4000032805D3FFE703208DF81F0000F08EBC89
:103D5000E9E7FFE740F61841C4F20241086820F4A1
:103D60007C10069A126A40EA02400860FFE722E0EF
:103D700040F60041C4F20241086820F480700860F7
:103D8000FCF708FE0590FFE740F60040C4F2024051
:103D90000068800500280DD5FFE7FCF7FBFD0599BD
:103DA000401A032805D3FFE703208DF81F0000F019
:103DB0005DBCE9E7FFE7FFE7FFE706980078C0078B
:103DC000002800F0B980FFE70498102808D0FFE72A
:103DD000049818280ED1FFE7039803280AD1FFE7BB
:103DE0000698406828B9FFE701208DF81F0000F011
:103DF0003DBCA0E0FFE706984068B0F5803F09D1E0
:103E0000FFE740F60041C4F20241086840F4803008
:103E1000086056E00698406888B9FFE740F6004120
:103E2000C4F20241086820F480300860086820F479
:103E300080100860086820F48020086040E0069840
:103E40004068B0F5A02F11D1FFE740F60041C4F261
:103E50000241086840F480200860086820F480105F
:103E60000860086840F48030086028E006984068E0
:103E7000B0F5A81F11D1FFE740F60041C4F202419E
:103E8000086840F480200860086840F480100860EA
:103E9000086840F48030086010E040F60041C4F249
:103EA0000241086820F480300860086820F480200F
:103EB0000860086820F480100860FFE7FFE7FFE76C
:103EC000FFE7FFE706984068D0B1FFE7FCF762FD27
:103ED0000590FFE740F60040C4F20240006880030E
:103EE00000280CD4FFE7FCF755FD0599401A65281A
:103EF00004D3FFE703208DF81F00B7E3EAE719E0DA
:103F0000FCF748FD0590FFE740F60040C4F2024090
:103F10000068800300280CD5FFE7FCF73BFD0599FE
:103F2000401A652804D3FFE703208DF81F009DE3A6
:103F3000EAE7FFE7FFE7FFE7069800788007002839
:103F400040F1C380FFE7049840B1FFE704981828C8
:103F50005ED1FFE7039801285AD1FFE70698C068B1
:103F600020B9FFE701208DF81F007FE3049840BBD4
:103F7000FFE740F60040C4F20240006800F018007D
:103F80000699096988421BD0FFE740F60041C4F258
:103F90000241086820F01800069A12691043086070
:103FA000FFF7AEFC40F23000C2F200000068FDF7FF
:103FB0005DF920B1FFE701208DF81F0056E3FFE710
:103FC000FFE7FCF7E7FC0590FFE740F60040C4F28E
:103FD00002400068800700280CD4FFE7FCF7DAFCF9
:103FE0000599401A032804D3FFE703208DF81F002A
:103FF0003CE3EAE740F61041C4F20241086820F4CD
:10400000FE00069A526940EA02400860FFE75BE062
:104010000698C068A8B3FFE740F60041C4F2024129
:10402000086820F01800069A1269104308600868B2
:1040300040F001000860FCF7ADFC0590FFE740F69A
:104040000040C4F202400068800700280CD4FFE75B
:10405000FCF7A0FC0599401A032804D3FFE70320CE
:104060008DF81F0002E3EAE740F61041C4F2024176
:10407000086820F4FE00069A526940EA024008608F
:1040800021E040F60041C4F20241086820F001003E
:104090000860FCF77FFC0590FFE740F60040C4F2A3
:1040A00002400068800700280CD5FFE7FCF772FC8F
:1040B0000599401A032804D3FFE703208DF81F0059
:1040C000D4E2EAE7FFE7FFE7FFE70698007800079A
:1040D000002849D5FFE70698806910B3FFE740F64E
:1040E000F041C4F20241086840F080600860FCF7CB
:1040F00051FC0590FFE740F6F040C4F20240006832
:10410000000100280CD4FFE7FCF744FC0599401A95
:10411000032804D3FFE703208DF81F00A6E2EAE797
:1041200021E040F6F041C4F20241086820F08060CE
:104130000860FCF72FFC0590FFE740F6F040C4F262
:1041400002400068000100280CD5FFE7FCF722FCC4
:104150000599401A032804D3FFE703208DF81F00B8
:1041600084E2EAE7FFE7FFE70698007840070028C7
:1041700040F1CC80FFE740F62400C4F20240006822
:10418000C00708BBFFE740F62401C4F202410868FB
:1041900040F001000860FCF7FDFB0590FFE740F6EA
:1041A0002400C4F202400068C00760B9FFE7FCF7D2
:1041B000F1FB0599401A032804D3FFE703208DF88B
:1041C0001F0053E2EBE7FFE7FFE70698806801284E
:1041D00009D1FFE740F6F041C4F20241086840F01F
:1041E0000100086054E00698806888B9FFE740F64F
:1041F000F041C4F20241086820F00100086008683C
:1042000020F080000860086820F0040008603EE0AC
:1042100006988068052811D1FFE740F6F041C4F206
:104220000241086840F004000860086820F080003F
:104230000860086840F00100086027E00698806880
:10424000852811D1FFE740F6F041C4F20241086829
:1042500040F004000860086840F0800008600868CA
:1042600040F00100086010E040F6F041C4F2024165
:10427000086820F001000860086820F00400086069
:10428000086820F080000860FFE7FFE7FFE7FFE72E
:10429000FFE706988068E0B1FFE7FCF77BFB05903D
:1042A000FFE740F6F040C4F20240006880070028B3
:1042B0000ED4FFE7FCF76EFB0599401A41F28931F5
:1042C000884204D3FFE703208DF81F00CEE1E8E722
:1042D0001BE0FCF75FFB0590FFE740F6F040C4F2FF
:1042E00002400068800700280ED5FFE7FCF752FB6C
:1042F0000599401A41F28931884204D3FFE703202F
:104300008DF81F00B2E1E8E7FFE7FFE706980078C5
:104310008006002849D5FFE70698406A10B3FFE7FA
:1043200040F60041C4F20241086840F48050086041
:10433000FCF730FB0590FFE740F60040C4F2024076
:104340000068800400280CD4FFE7FCF723FB0599E4
:10435000401A032804D3FFE703208DF81F0085E1EE
:10436000EAE721E040F60041C4F20241086820F487
:1043700080500860FCF70EFB0590FFE740F6004018
:10438000C4F202400068800400280CD5FFE7FCF767
:1043900001FB0599401A032804D3FFE703208DF899
:1043A0001F0063E1EAE7FFE7FFE70698806A00285D
:1043B00000F05881FFE70498182800F0D580FFE747
:1043C0000698806A022840F0A180FFE740F600418D
:1043D000C4F20241086820F080700860FCF7DAFA45
:1043E0000590FFE740F60040C4F2024000688001FB
:1043F00000280CD5FFE7FCF7CDFA0599401A0328F1
:1044000004D3FFE703208DF81F002FE1EAE7FFE761
:1044100040F62841C4F20241086843F60372904313
:10442000069BDA6A1B6B42EA032210430860069976
:10443000486BD1F838C0CB6B0A6C01386FF35F2042
:104440004FF60061CFF6FF7101EB4C2189B20844B1
:104450000021CFF6FF7101EB034101F4FE01084496
:104460004FF07F4101EB026101F0FE41084440F64C
:104470003441C4F202410860FFE740F62841C4F22B
:1044800002410091086820F0100008600698C06C96
:10449000C00040F63842C4F202421060086840F0A2
:1044A00010000860086820F00C00069A526C104357
:1044B0000860086820F02000069A926C104308609B
:1044C000086840F48030086040F60041C4F20241C0
:1044D000086840F080700860FCF75CFA0590FFE720
:1044E00040F60040C4F202400068800100280CD46D
:1044F000FFE7FCF74FFA0599401A032804D3FFE7BA
:1045000003208DF81F00B1E0EAE72CE040F60041FF
:10451000C4F20241086820F080700860FCF73AFAA3
:104520000590FFE740F60040C4F2024000688001B9
:1045300000280CD5FFE7FCF72DFA0599401A03284F
:1045400004D3FFE703208DF81F008FE0EAE740F671
:104550002841C4F2024108684FF6FC72CFF6F872A7
:1045600010400860FFE77CE040F62840C4F20240BB
:104570000068029040F63440C4F2024000680190A6
:104580000698806A012837D0FFE7029800F0030000
:104590000699C96A88422FD1FFE7029800F47C513E
:1045A0000698006BB0EB112F26D1FFE701986FF34F
:1045B0005F200699496B013988421DD1FFE7BDF89C
:1045C00004100698806B0138B0EB512F14D1FFE72F
:1045D000019800F4FE010698C06B0138B0EB114F52
:1045E0000AD1FFE7019800F0FE410698006C0138FF
:1045F000B0EB116F04D0FFE701208DF81F0035E00C
:1046000040F63840C4F20240006881B20698C06C9F
:10461000B0EBD10F24D0FFE740F62841C4F20241AD
:10462000086820F010000860FCF7B4F90590FFE777
:10463000FCF7B0F90599401A08B9FFE7F8E70698C2
:10464000C06CC00040F63841C4F20241086040F638
:104650002841C4F20241086840F010000860FFE7FA
:10466000FFE7FFE700208DF81F00FFE79DF81F0020
:1046700008B080BD82B00190009100990868496837
:10468000084347F61C01C4F200410860009988689D
:10469000CA6889691043084347F62441C4F20041BF
:1046A000086047F62041C4F20041086820F0FF107E
:1046B000009B1A695B6942EA0342104308600020CC
:1046C00002B0704780B582B0019001208DF80300E0
:1046D0000198002800F09080FFE7019890F82D00E5
:1046E00040B9FFE70199002081F82C00019800F003
:1046F00087F8FFE70199022081F82D0047F60C00AA
:10470000C4F20040006800F010010020B0EB111F5F
:1047100064D1FFE7FFE747F62401C4F20041CA2055
:10472000086053200860FFE7019802F089FD8DF8CA
:1047300003009DF80300002847D1FFE747F6180162
:10474000C4F2004108684FF6BF72CFF68F321040B6
:104750000860019A50681369926918430243086817
:104760001043086001988168C06840EA014047F63C
:104770001001C4F20041086047F60C01C4F2004188
:10478000086820F4F850019B5A6A9B6A1A43104348
:104790000860019802F0A6FD8DF803009DF8030063
:1047A00090B9FFE747F61801C4F20041086820F00D
:1047B0006040019A5369D2F81CC0126A42EA0C02A6
:1047C0001A4310430860FFE7FFE7FFE747F62401BD
:1047D000C4F20041FF200860FFE703E000208DF8ED
:1047E0000300FFE79DF8030028B9FFE701990120C6
:1047F00081F82D00FFE7FFE79DF8030002B080BDC0
:1048000080B5A6B0259002A88821FBF77BFD2598EE
:10481000006847F60001C4F20041884228D1FFE752
:10482000002003904FF0007002904FF40070209031
:1048300002A8FEF7CDF818B1FFE7FBF7A9FDFFE7E7
:1048400040F6F041C4F20241086840F400400860BC
:10485000FFE740F6A840C4F20240016841F40011AD
:104860000160006800F4001001900198FFE7FFE785
:1048700026B080BD80B584B0029047F60C01C4F22A
:104880000041086820F020000860FCF783F80190E0
:10489000FFE747F60C00C4F20040006880060028DD
:1048A0001AD4FFE7FCF776F80199401AB0F57A7F41
:1048B00011D9FFE747F60C00C4F2004000688006FB
:1048C000002807D4FFE70299032081F82D008DF816
:1048D0000F0005E000E0DCE700208DF80F00FFE7A7
:1048E0009DF80F0004B080BD82B001900198009047
:1048F000042843D80099DFE801F00C1D2F41030084
:104900004EF21001CEF20001086840F00400086089
:1049100035E04EF21001CEF20001086820F00400EC
:10492000086040F6E441C4F20241086820F00C003F
:10493000086024E04EF21001CEF20001086820F079
:104940000400086040F6E441C4F202410868012214
:1049500062F38300086012E04EF21001CEF2000113
:10496000086820F00400086040F6E441C4F2024107
:104970000868022262F38300086000E0FFE702B0EB
:104980007047000040F2AC00C2F200000168013143
:10499000016040F2B402C2F20002116801311160FC
:1049A00040F2A802C2F2000211680131116040F227
:1049B000A402C2F2000211680131116040F2B0029B
:1049C000C2F20002116801311160006801280DDB9C
:1049D000FFE740F29801C2F200010120086040F2B6
:1049E000AC01C2F2000100200860FFE740F2B40011
:1049F000C2F20000006805280DDBFFE740F2A001CD
:104A0000C2F200010120086040F2B401C2F20001CC
:104A100000200860FFE740F2A800C2F20000006832
:104A20000A280DDBFFE740F29401C2F200010120E9
:104A3000086040F2A801C2F2000100200860FFE710
:104A400040F2A400C2F20000006864280DDBFFE71A
:104A500040F29001C2F200010120086040F2A4017E
:104A6000C2F2000100200860FFE740F2B000C2F28D
:104A700000000068B0F57A7F0DDBFFE740F29C0193
:104A8000C2F200010120086040F2B001C2F2000150
:104A900000200860FFE7704782B00090009801385E
:104AA000B0F1807F03D3FFE70120019016E000986A
:104AB00001384EF21401CEF2000108604EF21801E6
:104AC000CEF20001002008604EF21002CEF2000289
:104AD000116841F0030111600190FFE7019802B0F5
:104AE0007047000083B04EF21000CEF20000006864
:104AF0004007002803D5FFE70420029020E040F69D
:104B0000E440C4F20240006800F00C0001900198FB
:104B1000009040B1FFE70098042807D0FFE7009815
:104B2000082806D008E00020029008E0012002904A
:104B300005E00220029002E000200290FFE7FFE77C
:104B4000029803B07047000080B5FFF71BFF80BDDF
:104B500083B00190FFE7019890F88400012804D108
:104B6000FFE702208DF80B002CE00199012081F86D
:104B70008400FFE7FFE701992420C1F8880001982D
:104B800000680068009001980168086820F0010042
:104B90000860009820F000500090019900204866BD
:104BA000009801990968086001992020C1F88800DF
:104BB000FFE70199002081F88400FFE700208DF8CD
:104BC0000B00FFE79DF80B0003B0704782B0019027
:104BD000ADF8021002B0704781B0009001B070478C
:104BE00080B584B002900191FFE7029890F88400AC
:104BF000012804D1FFE702208DF80F0032E002996E
:104C0000012081F88400FFE7FFE702992420C1F822
:104C1000880002980068006800900298016808689F
:104C200020F00100086002980068806820F0606051
:104C300001990843029909688860029802F0DCFC37
:104C4000009802990968086002992020C1F888003C
:104C5000FFE70299002081F88400FFE700208DF82B
:104C60000F00FFE79DF80F0004B080BD80B584B051
:104C700002900191FFE7029890F88400012804D186
:104C8000FFE702208DF80F0032E00299012081F841
:104C90008400FFE7FFE702992420C1F8880002980A
:104CA00000680068009002980168086820F0010020
:104CB000086002980068806820F06040019908430D
:104CC000029909688860029802F096FC009802999F
:104CD0000968086002992020C1F88800FFE702995E
:104CE000002081F88400FFE700208DF80F00FFE727
:104CF0009DF80F0004B080BD81B0009001B07047F6
:104D000081B0009001B0704780B584B002900298E5
:104D100020B9FFE701208DF80F002FE00299242031
:104D2000C1F8880002980168086820F00100086056
:104D300002980168002001900860029909684860A3
:104D4000029909688860029800F018FB019802999E
:104D5000C1F890000299C1F888000299C1F88C004E
:104D60000299C86602990867FFE70299002081F856
:104D70008400FFE700208DF80F00FFE79DF80F008B
:104D800004B080BD81B0009001B0704780B58EB096
:104D90000D900D980068C0690C900D98006800682F
:104DA0000B900D98006880680A900C9840F60F01EF
:104DB000084009900998E0B9FFE79DF830008006A7
:104DC000002815D5FFE79DF82C008006002806D4A2
:104DD000FFE79DF82B00C006002809D5FFE70D98D6
:104DE000406F20B1FFE70D98416F8847FFE76CE205
:104DF000FFE70998002800F0F980FFE70A980121F1
:104E0000C1F20001084209D1FFE70B9840F22011DE
:104E1000C0F20041084200F0E980FFE79DF8300051
:104E2000C00788B1FFE79DF82D00C00760B1FFE71C
:104E30000D980168012008620D99D1F8900040F0AA
:104E40000100C1F89000FFE79DF8300080070028BE
:104E500011D5FFE79DF82800C00760B1FFE70D9866
:104E60000168022008620D99D1F8900040F004001A
:104E7000C1F89000FFE79DF830004007002811D5E9
:104E8000FFE79DF82800C00760B1FFE70D980168B3
:104E9000042008620D99D1F8900040F00200C1F89A
:104EA0009000FFE79DF830000007002819D5FFE7C4
:104EB0009DF82C008006002807D4FFE70A980121FE
:104EC000C1F2000108420CD0FFE70D9801680820EC
:104ED00008620D99D1F8900040F00800C1F89000E8
:104EE000FFE79DF831000007002813D5FFE79DF884
:104EF0002F00400700280DD5FFE70D9801684FF4FB
:104F0000006008620D99D1F8900040F02000C1F8CF
:104F10009000FFE70D98D0F89000002865D0FFE7DB
:104F20009DF830008006002815D5FFE79DF82C007D
:104F30008006002806D4FFE79DF82B00C006002855
:104F400009D5FFE70D98406F20B1FFE70D98416F3D
:104F50008847FFE7FFE70D98D0F8900008900D987C
:104F60000068806800F04000402806D0FFE79DF808
:104F7000200010F0280F2FD0FFE70D9802F0DCFC86
:104F80000D98006880684006002820D5FFE70D983E
:104F9000D0F88000B0B1FFE70D98D0F8801047F648
:104FA0001510C0F60000C8660D98D0F88000FBF719
:104FB0007FFA30B1FFE70D98D0F88000C16E8847C6
:104FC000FFE703E00D98FFF7DDFEFFE703E00D9834
:104FD000FFF7D8FEFFE707E00D98FFF7D3FE0D9926
:104FE0000020C1F89000FFE7FFE76EE10D98C06E6A
:104FF000012840F00B81FFE79DF83000C006002833
:1050000040F10481FFE79DF82C00C006002840F124
:10501000FD80FFE70D980168102008620D98006878
:1050200080684006002840F18F80FFE70D98D0F897
:1050300080000068806CADF81E00BDF81E000028DE
:1050400067D0FFE7BDF81E000D99B1F85C108842EB
:105050005FDAFFE7BDF81E000D99A1F85E000D981C
:10506000D0F88000006D812846D0FFE7FFE7FFE71A
:105070000D98006850E8000F20F480700690FFE75C
:1050800006990D98026842E800100028F0D1FFE769
:10509000FFE7FFE7FFE70D98006850E8020F20F0F8
:1050A00001000590FFE705990D98026842E802109B
:1050B0000028F0D1FFE7FFE70D992020C1F88C0010
:1050C0000D990020C866FFE7FFE70D98006850E8DB
:1050D000000F20F010000490FFE704990D9802687B
:1050E00042E800100028F0D1FFE7FFE70D98D0F864
:1050F0008000FBF751F9FFE70D99022008670D9832
:10510000B0F85C10B0F85E20891A89B2FFF75EFD36
:1051100019E0BDF81E000D99B1F85C10884211D15C
:10512000FFE70D98D0F88000006D812809D1FFE7D6
:105130000D99022008670D98B0F85C10FFF746FD46
:10514000FFE7FFE7FFE7C0E00D99B1F85C00B1F8B9
:105150005E10401AADF80E000D98B0F85E00002801
:1051600053D0FFE7BDF80E0000284ED0FFE7FFE761
:10517000FFE70D98006850E8000F20F4907002904F
:10518000FFE702990D98026842E800100028F0D16C
:10519000FFE7FFE7FFE7FFE70D98006850E8020F21
:1051A0004FF6FE71CEF6FF7108400190FFE70199BE
:1051B0000D98026842E802100028EDD1FFE7FFE7F2
:1051C0000D992020C1F88C000D990020C8660D991A
:1051D0004867FFE7FFE70D98006850E8000F20F0F0
:1051E00010000090FFE700990D98026842E8001057
:1051F0000028F0D1FFE7FFE70D99022008670D981E
:10520000BDF80E10FFF7E2FCFFE75EE09DF832000C
:10521000C00600280FD5FFE79DF82A0040060028A9
:1052200009D5FFE70D9801684FF4801008620D98CA
:10523000FFF766FD49E09DF830000006002815D50F
:10524000FFE79DF82C000006002806D4FFE79DF834
:105250002A000006002809D5FFE70D98806F20B1CD
:10526000FFE70D98816F8847FFE72EE09DF830003B
:10527000400600280AD5FFE79DF82C0040060028CC
:1052800004D5FFE70D9802F0A7FB1EE09DF8320061
:10529000000600280AD5FFE79DF82F0040060028E9
:1052A00004D5FFE70D98FFF727FD0EE09DF83300CA
:1052B000C00750B1FFE79DF82F000006002804D575
:1052C000FFE70D98FFF788FCFFE70EB080BD0000F8
:1052D00080B582B00090009820B9FFE701208DF8DA
:1052E000070046E00098806908B1FFE700E0FFE7AB
:1052F0000098D0F8880040B9FFE70099002081F8B5
:105300008400009800F094F8FFE700992420C1F889
:10531000880000980168086820F001000860009883
:10532000806A20B1FFE7009802F0ACF9FFE700982F
:1053300002F0FCFF012804D1FFE701208DF80700EF
:1053400017E000980168486820F490404860009891
:105350000168886820F02A00886000980168086861
:1053600040F001000860009802F030FA8DF8070064
:10537000FFE79DF8070002B080BD000080B582B055
:1053800001900198006843F60001C4F201018842CF
:1053900014D1FFE740F6A441C4F20241086820F4AA
:1053A0008040086040F20040C4F202204FF44041C7
:1053B000FBF7CAF83A20FBF7E5FF36E001980068F2
:1053C00044F20041C4F20001884212D1FFE740F6E6
:1053D0009C41C4F20241086820F4003008600020BB
:1053E000C4F202200C21FBF7AFF83B20FBF7CAFF09
:1053F0001AE00198006844F60001C4F200018842F6
:1054000011D1FFE740F69C41C4F20241086820F444
:105410008020086040F20040C4F202204FF4A061F6
:10542000FBF792F8FFE7FFE7FFE702B080BD00005F
:1054300080B5B8B0379000203690359034903390D6
:10544000329010A88821FAF75DFF3798006843F67C
:105450000001C4F20101884248D1FFE70020119009
:10546000012110911D9010A8FDF7B2FA18B1FFE7C5
:10547000FAF78EFFFFE7FFE740F6A440C4F20240D0
:10548000016841F480410160006800F480400F90A1
:105490000F98FFE7FFE740F68C40C4F20240016836
:1054A00041F002010160006800F002000E900E98C9
:1054B000FFE74FF4404032900220079033900020E5
:1054C0000890349035900420369040F20040C4F2A9
:1054D000022032A9FBF7E0F80799089A3A200990D0
:1054E000FBF764FF0998FBF757FFB2E037980068B5
:1054F00044F20041C4F20001884245D1FFE7002098
:105500001190022110911E9010A8FDF761FA18B1B8
:10551000FFE7FAF73DFFFFE7FFE740F69C40C4F2E4
:105520000240016841F400310160006800F400307D
:105530000D900D98FFE7FFE740F68C40C4F2024063
:10554000016841F001010160006800F001000C9069
:105550000C98FFE70C203290022033900020059039
:1055600034903590072036900020C4F2022032A9F2
:10557000FBF792F8059A3B2006901146FBF716FFC1
:105580000698FBF709FF63E03798006844F60001CE
:10559000C4F2000188425AD1FFE700201190042193
:1055A00010911F9010A8FDF713FA18B1FFE7FAF752
:1055B000EFFEFFE7FFE740F69C40C4F202400168BF
:1055C00041F480210160006800F480200B900B986A
:1055D000FFE7FFE740F68C40C4F20240016841F06B
:1055E00002010160006800F002000A900A98FFE7DB
:1055F0004FF480603290022002903390349000206B
:10560000019035900720369040F20040C4F202200D
:10561000039032A90491FBF73FF8019B029A03988B
:1056200004994FF4807CCDF8C8C0339234933592FE
:105630000D223692FBF730F8FFE740F20051C4F23A
:105640000041086840F480200860FFE7FFE7FFE7BB
:10565000FFE738B080BD000080B58AB008900791A0
:10566000ADF81A2005930898D0F88C00202840F057
:10567000D480FFE7079820B1FFE7BDF81A0020B9F2
:10568000FFE701208DF82700CBE0089800688068CC
:105690004006002807D5FFE708980168886820F0D1
:1056A00040008860FFE708990020C1F89000089A40
:1056B0002221C2F88C100899C866FBF76BF901909B
:1056C000BDF81A000899A1F85C00BDF81A00089905
:1056D000A1F85E00FFE708988068B0F5805F10D100
:1056E000FFE70898006930B9FFE7089940F2FF101A
:1056F000A1F8600004E00899FF20A1F86000FFE72E
:105700002EE00898806878B9FFE70898006928B902
:10571000FFE70899FF20A1F8600004E008997F20C6
:10572000A1F86000FFE71AE008988068B0F1805F98
:105730000FD1FFE70898006928B9FFE708997F2093
:10574000A1F8600004E008993F20A1F86000FFE79D
:1057500004E008990020A1F86000FFE7FFE7FFE7F9
:10576000FFE70898B0F86000ADF80A000898806874
:10577000B0F5805F09D1FFE70898006928B9FFE715
:10578000002004900798039004E0079804900020FC
:105790000390FFE7FFE70898B0F85E00A8B3FFE7C3
:1057A0000898019B05996A4611602021002203F0A8
:1057B00047F840B1FFE708992020C1F88C0003208A
:1057C0008DF827002DE0049860B9FFE7089800687D
:1057D000406ABDF80A100840039908800398023017
:1057E00003900BE008980068406A9DF80A10084092
:1057F00004990870049801300490FFE70899B1F803
:105800005E000138A1F85E00C5E708992020C1F8C4
:105810008C0000208DF8270003E002208DF827007F
:10582000FFE79DF827000AB080BD000080B586B074
:1058300004900391ADF80A200498D0F88C00202839
:105840004AD1FFE7039820B1FFE7BDF80A0020B96D
:10585000FFE701208DF8170042E004990020C86698
:105860000498006880684006002807D5FFE7049880
:105870000168886820F040008860FFE704980068AD
:1058800042F20041C4F2004188421CD0FFE7049874
:10589000006840680002002814D5FFE7FFE7FFE733
:1058A0000498006850E8000F40F080600190FFE726
:1058B00001990498026842E800100028F0D1FFE73F
:1058C000FFE7FFE7FFE704980399BDF80A2002F01D
:1058D000A5FE8DF8170003E002208DF81700FFE702
:1058E0009DF8170006B080BD80B586B005900020F9
:1058F0008DF813000598006843F60001C4F2010119
:10590000884277D1FFE740F23E30C2F200000088C3
:10591000E0B9FFE740F23330C2F200000078CC2853
:1059200014D0FFE740F23E30C2F2000000210180B7
:10593000018840F23330C2F20000014440F274109A
:10594000C2F200000122FFF771FFD1E040F23E30C9
:10595000C2F2000000880A2828DBFFE740F233305B
:10596000C2F20000039001F07DFB039840F23E314B
:10597000C2F20001029100220A80028142600260AC
:1059800040F20040C4F202202021FAF7EDFF64202B
:10599000FAF7B8FD029903980988014440F274109F
:1059A000C2F200000122FFF741FFA1E040F23E30C9
:1059B000C2F2000001880131018000880B2807DB5A
:1059C000FFE740F23E31C2F2000100200880FFE70D
:1059D00040F23E30C2F20000018840F23330C2F2A1
:1059E0000000014440F27410C2F200000122FFF7EF
:1059F0001DFF7DE00598006844F20041C4F20001FB
:105A0000884274D1FFE740F23E30C2F200000088C5
:105A1000E0B9FFE740F23330C2F200000078CC2852
:105A200014D0FFE740F23E30C2F2000000210180B6
:105A3000018840F23330C2F20000014440F20820F5
:105A4000C2F200000122FFF7F1FE51E040F23E30C9
:105A5000C2F2000000880A2825DBFFE740F233305D
:105A6000C2F20000019001F0FDFA019840F23E31CF
:105A7000C2F20001009100220A80028142600260AD
:105A800040F20040C4F202200821FAF76DFF0099AD
:105A900001980988014440F20820C2F20000012266
:105AA000FFF7C4FE24E040F23E30C2F2000001885D
:105AB0000131018000880B2807DBFFE740F23E310F
:105AC000C2F2000100200880FFE740F23E30C2F23F
:105AD0000000018840F23330C2F20000014440F27D
